{
  "contractName": "QuestionAnswer",
  "abi": [
    {
      "inputs": [],
      "stateMutability": "nonpayable",
      "type": "constructor"
    },
    {
      "anonymous": false,
      "inputs": [
        {
          "indexed": true,
          "internalType": "uint256",
          "name": "answerId",
          "type": "uint256"
        },
        {
          "indexed": true,
          "internalType": "uint256",
          "name": "questionId",
          "type": "uint256"
        },
        {
          "indexed": false,
          "internalType": "string",
          "name": "ipfsHash",
          "type": "string"
        },
        {
          "indexed": false,
          "internalType": "address",
          "name": "author",
          "type": "address"
        },
        {
          "indexed": false,
          "internalType": "uint256",
          "name": "timestamp",
          "type": "uint256"
        }
      ],
      "name": "AnswerPosted",
      "type": "event"
    },
    {
      "anonymous": false,
      "inputs": [
        {
          "indexed": true,
          "internalType": "uint256",
          "name": "answerId",
          "type": "uint256"
        },
        {
          "indexed": false,
          "internalType": "string",
          "name": "newIpfsHash",
          "type": "string"
        },
        {
          "indexed": false,
          "internalType": "uint256",
          "name": "timestamp",
          "type": "uint256"
        }
      ],
      "name": "AnswerUpdated",
      "type": "event"
    },
    {
      "anonymous": false,
      "inputs": [
        {
          "indexed": true,
          "internalType": "uint256",
          "name": "answerId",
          "type": "uint256"
        },
        {
          "indexed": true,
          "internalType": "address",
          "name": "upvoter",
          "type": "address"
        }
      ],
      "name": "AnswerUpvoted",
      "type": "event"
    },
    {
      "anonymous": false,
      "inputs": [
        {
          "indexed": true,
          "internalType": "uint256",
          "name": "questionId",
          "type": "uint256"
        },
        {
          "indexed": true,
          "internalType": "uint256",
          "name": "answerId",
          "type": "uint256"
        },
        {
          "indexed": true,
          "internalType": "address",
          "name": "claimer",
          "type": "address"
        },
        {
          "indexed": false,
          "internalType": "uint256",
          "name": "amount",
          "type": "uint256"
        }
      ],
      "name": "BountyClaimed",
      "type": "event"
    },
    {
      "anonymous": false,
      "inputs": [
        {
          "indexed": true,
          "internalType": "uint256",
          "name": "questionId",
          "type": "uint256"
        },
        {
          "indexed": true,
          "internalType": "address",
          "name": "proposer",
          "type": "address"
        },
        {
          "indexed": true,
          "internalType": "address",
          "name": "recipient",
          "type": "address"
        },
        {
          "indexed": false,
          "internalType": "uint256",
          "name": "amount",
          "type": "uint256"
        }
      ],
      "name": "BountyProposed",
      "type": "event"
    },
    {
      "anonymous": false,
      "inputs": [
        {
          "indexed": true,
          "internalType": "uint256",
          "name": "questionId",
          "type": "uint256"
        },
        {
          "indexed": true,
          "internalType": "address",
          "name": "withdrawer",
          "type": "address"
        },
        {
          "indexed": false,
          "internalType": "uint256",
          "name": "amount",
          "type": "uint256"
        }
      ],
      "name": "BountyWithdrawn",
      "type": "event"
    },
    {
      "anonymous": false,
      "inputs": [
        {
          "indexed": true,
          "internalType": "uint256",
          "name": "questionId",
          "type": "uint256"
        },
        {
          "indexed": false,
          "internalType": "string",
          "name": "ipfsHash",
          "type": "string"
        },
        {
          "indexed": false,
          "internalType": "uint256",
          "name": "timestamp",
          "type": "uint256"
        },
        {
          "indexed": false,
          "internalType": "address",
          "name": "author",
          "type": "address"
        }
      ],
      "name": "QuestionPosted",
      "type": "event"
    },
    {
      "inputs": [],
      "name": "BOUNTY_DURATION",
      "outputs": [
        {
          "internalType": "uint256",
          "name": "",
          "type": "uint256"
        }
      ],
      "stateMutability": "view",
      "type": "function",
      "constant": true
    },
    {
      "inputs": [],
      "name": "answerCount",
      "outputs": [
        {
          "internalType": "uint256",
          "name": "",
          "type": "uint256"
        }
      ],
      "stateMutability": "view",
      "type": "function",
      "constant": true
    },
    {
      "inputs": [
        {
          "internalType": "uint256",
          "name": "",
          "type": "uint256"
        },
        {
          "internalType": "address",
          "name": "",
          "type": "address"
        }
      ],
      "name": "answerUpvotes",
      "outputs": [
        {
          "internalType": "bool",
          "name": "",
          "type": "bool"
        }
      ],
      "stateMutability": "view",
      "type": "function",
      "constant": true
    },
    {
      "inputs": [
        {
          "internalType": "uint256",
          "name": "",
          "type": "uint256"
        }
      ],
      "name": "answers",
      "outputs": [
        {
          "internalType": "uint256",
          "name": "id",
          "type": "uint256"
        },
        {
          "internalType": "uint256",
          "name": "questionId",
          "type": "uint256"
        },
        {
          "internalType": "string",
          "name": "ipfsHash",
          "type": "string"
        },
        {
          "internalType": "address",
          "name": "author",
          "type": "address"
        },
        {
          "internalType": "uint256",
          "name": "timestamp",
          "type": "uint256"
        },
        {
          "internalType": "uint256",
          "name": "views",
          "type": "uint256"
        },
        {
          "internalType": "uint256",
          "name": "upvoteCount",
          "type": "uint256"
        }
      ],
      "stateMutability": "view",
      "type": "function",
      "constant": true
    },
    {
      "inputs": [],
      "name": "owner",
      "outputs": [
        {
          "internalType": "address",
          "name": "",
          "type": "address"
        }
      ],
      "stateMutability": "view",
      "type": "function",
      "constant": true
    },
    {
      "inputs": [
        {
          "internalType": "uint256",
          "name": "",
          "type": "uint256"
        },
        {
          "internalType": "uint256",
          "name": "",
          "type": "uint256"
        }
      ],
      "name": "questionAnswers",
      "outputs": [
        {
          "internalType": "uint256",
          "name": "",
          "type": "uint256"
        }
      ],
      "stateMutability": "view",
      "type": "function",
      "constant": true
    },
    {
      "inputs": [
        {
          "internalType": "uint256",
          "name": "",
          "type": "uint256"
        },
        {
          "internalType": "address",
          "name": "",
          "type": "address"
        }
      ],
      "name": "questionBounties",
      "outputs": [
        {
          "internalType": "uint256",
          "name": "amount",
          "type": "uint256"
        },
        {
          "internalType": "uint256",
          "name": "proposedAt",
          "type": "uint256"
        }
      ],
      "stateMutability": "view",
      "type": "function",
      "constant": true
    },
    {
      "inputs": [],
      "name": "questionCount",
      "outputs": [
        {
          "internalType": "uint256",
          "name": "",
          "type": "uint256"
        }
      ],
      "stateMutability": "view",
      "type": "function",
      "constant": true
    },
    {
      "inputs": [
        {
          "internalType": "uint256",
          "name": "",
          "type": "uint256"
        }
      ],
      "name": "questions",
      "outputs": [
        {
          "internalType": "uint256",
          "name": "id",
          "type": "uint256"
        },
        {
          "internalType": "string",
          "name": "ipfsHash",
          "type": "string"
        },
        {
          "internalType": "uint256",
          "name": "timestamp",
          "type": "uint256"
        },
        {
          "internalType": "address",
          "name": "author",
          "type": "address"
        },
        {
          "internalType": "uint256",
          "name": "views",
          "type": "uint256"
        },
        {
          "internalType": "uint256",
          "name": "bountyAmount",
          "type": "uint256"
        }
      ],
      "stateMutability": "view",
      "type": "function",
      "constant": true
    },
    {
      "inputs": [
        {
          "internalType": "address",
          "name": "",
          "type": "address"
        },
        {
          "internalType": "uint256",
          "name": "",
          "type": "uint256"
        }
      ],
      "name": "userAnswers",
      "outputs": [
        {
          "internalType": "uint256",
          "name": "",
          "type": "uint256"
        }
      ],
      "stateMutability": "view",
      "type": "function",
      "constant": true
    },
    {
      "inputs": [
        {
          "internalType": "address",
          "name": "",
          "type": "address"
        }
      ],
      "name": "users",
      "outputs": [
        {
          "internalType": "address",
          "name": "userAddress",
          "type": "address"
        },
        {
          "internalType": "string",
          "name": "name",
          "type": "string"
        },
        {
          "internalType": "string",
          "name": "bio",
          "type": "string"
        },
        {
          "internalType": "string",
          "name": "twitterLink",
          "type": "string"
        },
        {
          "internalType": "string",
          "name": "websiteLink",
          "type": "string"
        },
        {
          "internalType": "string",
          "name": "profilePicture",
          "type": "string"
        },
        {
          "internalType": "string",
          "name": "username",
          "type": "string"
        },
        {
          "internalType": "string",
          "name": "occupation",
          "type": "string"
        },
        {
          "internalType": "uint256",
          "name": "points",
          "type": "uint256"
        },
        {
          "internalType": "uint256",
          "name": "reputation",
          "type": "uint256"
        },
        {
          "internalType": "uint256",
          "name": "lastActivity",
          "type": "uint256"
        }
      ],
      "stateMutability": "view",
      "type": "function",
      "constant": true
    },
    {
      "inputs": [
        {
          "internalType": "string",
          "name": "name",
          "type": "string"
        },
        {
          "internalType": "string",
          "name": "bio",
          "type": "string"
        },
        {
          "internalType": "string",
          "name": "twitterLink",
          "type": "string"
        },
        {
          "internalType": "string",
          "name": "websiteLink",
          "type": "string"
        },
        {
          "internalType": "string",
          "name": "profilePicture",
          "type": "string"
        },
        {
          "internalType": "string",
          "name": "username",
          "type": "string"
        },
        {
          "internalType": "string",
          "name": "occupation",
          "type": "string"
        }
      ],
      "name": "registerUser",
      "outputs": [],
      "stateMutability": "nonpayable",
      "type": "function"
    },
    {
      "inputs": [
        {
          "internalType": "string",
          "name": "ipfsHash",
          "type": "string"
        }
      ],
      "name": "postQuestion",
      "outputs": [],
      "stateMutability": "nonpayable",
      "type": "function"
    },
    {
      "inputs": [
        {
          "internalType": "uint256",
          "name": "_questionId",
          "type": "uint256"
        },
        {
          "internalType": "address",
          "name": "_recipient",
          "type": "address"
        }
      ],
      "name": "proposeBounty",
      "outputs": [],
      "stateMutability": "payable",
      "type": "function",
      "payable": true
    },
    {
      "inputs": [
        {
          "internalType": "uint256",
          "name": "_questionId",
          "type": "uint256"
        }
      ],
      "name": "withdrawBounty",
      "outputs": [],
      "stateMutability": "nonpayable",
      "type": "function"
    },
    {
      "inputs": [
        {
          "internalType": "uint256",
          "name": "questionId",
          "type": "uint256"
        },
        {
          "internalType": "string",
          "name": "ipfsHash",
          "type": "string"
        }
      ],
      "name": "postAnswer",
      "outputs": [],
      "stateMutability": "nonpayable",
      "type": "function"
    },
    {
      "inputs": [
        {
          "internalType": "uint256",
          "name": "answerId",
          "type": "uint256"
        },
        {
          "internalType": "string",
          "name": "newIpfsHash",
          "type": "string"
        }
      ],
      "name": "updateAnswer",
      "outputs": [],
      "stateMutability": "nonpayable",
      "type": "function"
    },
    {
      "inputs": [
        {
          "internalType": "uint256",
          "name": "answerId",
          "type": "uint256"
        }
      ],
      "name": "upvoteAnswer",
      "outputs": [],
      "stateMutability": "nonpayable",
      "type": "function"
    },
    {
      "inputs": [
        {
          "internalType": "uint256",
          "name": "answerId",
          "type": "uint256"
        },
        {
          "internalType": "address",
          "name": "user",
          "type": "address"
        }
      ],
      "name": "hasUpvoted",
      "outputs": [
        {
          "internalType": "bool",
          "name": "",
          "type": "bool"
        }
      ],
      "stateMutability": "view",
      "type": "function",
      "constant": true
    },
    {
      "inputs": [
        {
          "internalType": "uint256",
          "name": "questionId",
          "type": "uint256"
        },
        {
          "internalType": "uint256",
          "name": "answerId",
          "type": "uint256"
        }
      ],
      "name": "claimBounty",
      "outputs": [],
      "stateMutability": "nonpayable",
      "type": "function"
    },
    {
      "inputs": [
        {
          "internalType": "uint256",
          "name": "questionId",
          "type": "uint256"
        }
      ],
      "name": "updateQuestionViews",
      "outputs": [],
      "stateMutability": "nonpayable",
      "type": "function"
    },
    {
      "inputs": [
        {
          "internalType": "uint256",
          "name": "answerId",
          "type": "uint256"
        }
      ],
      "name": "updateAnswerViews",
      "outputs": [],
      "stateMutability": "nonpayable",
      "type": "function"
    },
    {
      "inputs": [
        {
          "internalType": "uint256",
          "name": "questionId",
          "type": "uint256"
        }
      ],
      "name": "getQuestionAnswers",
      "outputs": [
        {
          "internalType": "uint256[]",
          "name": "",
          "type": "uint256[]"
        }
      ],
      "stateMutability": "view",
      "type": "function",
      "constant": true
    },
    {
      "inputs": [],
      "name": "getAllQuestions",
      "outputs": [
        {
          "components": [
            {
              "internalType": "uint256",
              "name": "id",
              "type": "uint256"
            },
            {
              "internalType": "string",
              "name": "ipfsHash",
              "type": "string"
            },
            {
              "internalType": "uint256",
              "name": "timestamp",
              "type": "uint256"
            },
            {
              "internalType": "address",
              "name": "author",
              "type": "address"
            },
            {
              "internalType": "uint256",
              "name": "views",
              "type": "uint256"
            },
            {
              "internalType": "uint256",
              "name": "bountyAmount",
              "type": "uint256"
            },
            {
              "internalType": "address[]",
              "name": "bountyProposers",
              "type": "address[]"
            }
          ],
          "internalType": "struct QuestionAnswer.Question[]",
          "name": "",
          "type": "tuple[]"
        }
      ],
      "stateMutability": "view",
      "type": "function",
      "constant": true
    }
  ],
  "bytecode": "0x608060405234801561001057600080fd5b50600980546001600160a01b0319163317905560008080556001556124908061003a6000396000f3fe60806040526004361061014b5760003560e01c80637df88f24116100b6578063a87430ba1161006f578063a87430ba14610431578063c921d66c14610468578063de03fe1d14610488578063f64acb6a146104a8578063fa2f52c5146104e3578063faf99c87146105035761014b565b80637df88f2414610339578063895ac981146103595780638da5cb5b1461037057806390a53e0f146103a857806391048613146103bb578063a52c8658146103db5761014b565b806331b1b9781161010857806331b1b978146102315780633d56b5d1146102635780634a9c7771146102b75780634ae8af09146102d95780635a8e77a5146102f95780637116cad8146103195761014b565b80630bed0502146101505780631468aa2c1461017957806317599cc51461018f5780631a6992b6146101c25780632af9338e146101ef5780632e80933314610211575b600080fd5b34801561015c57600080fd5b5061016660015481565b6040519081526020015b60405180910390f35b34801561018557600080fd5b5061016660005481565b34801561019b57600080fd5b506101af6101aa366004611f02565b610523565b604051610170979695949392919061231c565b3480156101ce57600080fd5b506101e26101dd366004611f02565b6105f1565b60405161017091906121a8565b3480156101fb57600080fd5b50610204610654565b60405161017091906120b8565b34801561021d57600080fd5b5061016661022c366004611f8a565b6108c2565b34801561023d57600080fd5b5061025161024c366004611f02565b6108f3565b604051610170969594939291906122d5565b34801561026f57600080fd5b506102a261027e366004611f1a565b60076020908152600092835260408084209091529082529020805460019091015482565b60408051928352602083019190915201610170565b3480156102c357600080fd5b506102d76102d2366004611f45565b6109bb565b005b3480156102e557600080fd5b506102d76102f4366004611def565b610ae8565b34801561030557600080fd5b506102d7610314366004611f02565b610cb0565b34801561032557600080fd5b506102d7610334366004611db4565b610e5f565b34801561034557600080fd5b506102d7610354366004611f02565b610f7a565b34801561036557600080fd5b506101666212750081565b34801561037c57600080fd5b50600954610390906001600160a01b031681565b6040516001600160a01b039091168152602001610170565b6102d76103b6366004611f1a565b6110ee565b3480156103c757600080fd5b506102d76103d6366004611f02565b61131a565b3480156103e757600080fd5b506104216103f6366004611f1a565b60009182526008602090815260408084206001600160a01b0393909316845291905290205460ff1690565b6040519015158152602001610170565b34801561043d57600080fd5b5061045161044c366004611d6a565b61136f565b6040516101709b9a99989796959493929190611ff6565b34801561047457600080fd5b506102d7610483366004611f45565b611784565b34801561049457600080fd5b506102d76104a3366004611f8a565b611908565b3480156104b457600080fd5b506104216104c3366004611f1a565b600860209081526000928352604080842090915290825290205460ff1681565b3480156104ef57600080fd5b506102d76104fe366004611f02565b611b76565b34801561050f57600080fd5b5061016661051e366004611d8b565b611bc2565b6003602052600090815260409020805460018201546002830180549293919261054b906123d8565b80601f0160208091040260200160405190810160405280929190818152602001828054610577906123d8565b80156105c45780601f10610599576101008083540402835291602001916105c4565b820191906000526020600020905b8154815290600101906020018083116105a757829003601f168201915b5050505060038301546004840154600585015460069095015493946001600160a01b039092169390925087565b60008181526006602090815260409182902080548351818402810184019094528084526060939283018282801561064757602002820191906000526020600020905b815481526020019060010190808311610633575b505050505090505b919050565b60606000805467ffffffffffffffff81111561068057634e487b7160e01b600052604160045260246000fd5b6040519080825280602002602001820160405280156106fa57816020015b6106e76040518060e0016040528060008152602001606081526020016000815260200160006001600160a01b031681526020016000815260200160008152602001606081525090565b81526020019060019003908161069e5790505b50905060015b60005481116108bc57600260008281526020019081526020016000206040518060e001604052908160008201548152602001600182018054610741906123d8565b80601f016020809104026020016040519081016040528092919081815260200182805461076d906123d8565b80156107ba5780601f1061078f576101008083540402835291602001916107ba565b820191906000526020600020905b81548152906001019060200180831161079d57829003601f168201915b50505050508152602001600282015481526020016003820160009054906101000a90046001600160a01b03166001600160a01b03166001600160a01b0316815260200160048201548152602001600582015481526020016006820180548060200260200160405190810160405280929190818152602001828054801561086957602002820191906000526020600020905b81546001600160a01b0316815260019091019060200180831161084b575b5050505050815250508260018361088091906123c1565b8151811061089e57634e487b7160e01b600052603260045260246000fd5b602002602001018190525080806108b490612413565b915050610700565b50905090565b600660205281600052604060002081815481106108de57600080fd5b90600052602060002001600091509150505481565b60026020526000908152604090208054600182018054919291610915906123d8565b80601f0160208091040260200160405190810160405280929190818152602001828054610941906123d8565b801561098e5780601f106109635761010080835404028352916020019161098e565b820191906000526020600020905b81548152906001019060200180831161097157829003601f168201915b50505050600283015460038401546004850154600590950154939491936001600160a01b03909116925086565b816000811180156109ce57506001548111155b6109f35760405162461bcd60e51b81526004016109ea9061226f565b60405180910390fd5b600083815260036020819052604090912001546001600160a01b03163314610a6b5760405162461bcd60e51b815260206004820152602560248201527f4f6e6c792074686520617574686f722063616e207570646174652074686520616044820152643739bbb2b960d91b60648201526084016109ea565b60008381526003602090815260409091208351610a9092600290920191850190611bde565b5060008381526003602052604090819020426004909101819055905184917fb77ed0fdc5b6bec53163a74c1d23e4bee7fefe9bb645c8857c2610953570fb0191610adb91869161221a565b60405180910390a2505050565b336000908152600460205260409020546001600160a01b031615610b445760405162461bcd60e51b81526020600482015260136024820152725573657220616c72656164792065786973747360681b60448201526064016109ea565b60408051610160810182523380825260208083018b81528385018b9052606084018a90526080840189905260a0840188905260c0840187905260e08401869052600061010085018190526101208501819052426101408601529283526004825293909120825181546001600160a01b0319166001600160a01b0390911617815592518051929392610bdb9260018501920190611bde565b5060408201518051610bf7916002840191602090910190611bde565b5060608201518051610c13916003840191602090910190611bde565b5060808201518051610c2f916004840191602090910190611bde565b5060a08201518051610c4b916005840191602090910190611bde565b5060c08201518051610c67916006840191602090910190611bde565b5060e08201518051610c83916007840191602090910190611bde565b506101008201516008820155610120820151600982015561014090910151600a9091015550505050505050565b80600081118015610cc357506000548111155b610cdf5760405162461bcd60e51b81526004016109ea9061229e565b60008281526007602090815260408083203384528252918290208251808401909352805480845260019091015491830191909152610d575760405162461bcd60e51b81526020600482015260156024820152744e6f20626f756e747920746f20776974686472617760581b60448201526064016109ea565b621275008160200151610d6a919061236a565b4211610dae5760405162461bcd60e51b8152602060048201526013602482015272426f756e7479207374696c6c2061637469766560681b60448201526064016109ea565b805160008481526007602090815260408083203384528252808320838155600101839055868352600290915281206005018054839290610def9084906123c1565b9091555050604051339082156108fc029083906000818181858888f19350505050158015610e21573d6000803e3d6000fd5b50604051818152339085907f149f1678220fbfdff833f102b4466d620d4c3e96a2e7b57c273b7176f04ae94b9060200160405180910390a350505050565b600054610e6d90600161236a565b60008181556040805160e081018252838152602080820186815242838501523360608401526080830185905260a083018590528351858152808301855260c084015294845260028152919092208251815592518051929392610ed59260018501920190611bde565b506040820151600282015560608201516003820180546001600160a01b0319166001600160a01b039092169190911790556080820151600482015560a0820151600582015560c08201518051610f35916006840191602090910190611c62565b509050506000547f84e438fbb7f0a4929e893b9b71458ef179bb61af3273cdf0fbbe2dd7b9375f02824233604051610f6f9392919061223c565b60405180910390a250565b336000818152600460205260409020546001600160a01b0316610fd55760405162461bcd60e51b8152602060048201526013602482015272155cd95c88191bd95cc81b9bdd08195e1a5cdd606a1b60448201526064016109ea565b81600081118015610fe857506001548111155b6110045760405162461bcd60e51b81526004016109ea9061226f565b600083815260086020908152604080832033845290915290205460ff161561107a5760405162461bcd60e51b8152602060048201526024808201527f557365722068617320616c7265616479207570766f746564207468697320616e60448201526339bbb2b960e11b60648201526084016109ea565b60008381526008602090815260408083203384528252808320805460ff19166001179055858352600390915281206006018054916110b783612413565b9091555050604051339084907fa51aa6e7a66a37c406e61e829ea3777e503276b5b5706aa6b22cc6cfd568370c90600090a3505050565b8160008111801561110157506000548111155b61111d5760405162461bcd60e51b81526004016109ea9061229e565b600034116111795760405162461bcd60e51b8152602060048201526024808201527f426f756e747920616d6f756e74206d75737420626520677265617465722074686044820152630616e20360e41b60648201526084016109ea565b6001600160a01b0382166111cf5760405162461bcd60e51b815260206004820152601960248201527f496e76616c696420726563697069656e7420616464726573730000000000000060448201526064016109ea565b336001600160a01b03831614156112325760405162461bcd60e51b815260206004820152602160248201527f43616e6e6f742070726f706f736520626f756e747920746f20796f757273656c6044820152603360f91b60648201526084016109ea565b604080518082018252348082524260208084019182526000888152600782528581206001600160a01b038916825282528581209451855591516001909401939093558681526002909252918120600501805490919061129290849061236a565b909155505060008381526002602090815260408083206006018054600181018255908452919092200180546001600160a01b0319163390811790915590516001600160a01b038416919085907f06299395315b3c306b3100a7f89087c6ed514d7b80f6b114be1e12680bdfc7fe9061130d9034815260200190565b60405180910390a4505050565b8060008111801561132d57506000548111155b6113495760405162461bcd60e51b81526004016109ea9061229e565b600082815260026020526040812060040180549161136683612413565b91905055505050565b600460205260009081526040902080546001820180546001600160a01b03909216929161139b906123d8565b80601f01602080910402602001604051908101604052809291908181526020018280546113c7906123d8565b80156114145780601f106113e957610100808354040283529160200191611414565b820191906000526020600020905b8154815290600101906020018083116113f757829003601f168201915b505050505090806002018054611429906123d8565b80601f0160208091040260200160405190810160405280929190818152602001828054611455906123d8565b80156114a25780601f10611477576101008083540402835291602001916114a2565b820191906000526020600020905b81548152906001019060200180831161148557829003601f168201915b5050505050908060030180546114b7906123d8565b80601f01602080910402602001604051908101604052809291908181526020018280546114e3906123d8565b80156115305780601f1061150557610100808354040283529160200191611530565b820191906000526020600020905b81548152906001019060200180831161151357829003601f168201915b505050505090806004018054611545906123d8565b80601f0160208091040260200160405190810160405280929190818152602001828054611571906123d8565b80156115be5780601f10611593576101008083540402835291602001916115be565b820191906000526020600020905b8154815290600101906020018083116115a157829003601f168201915b5050505050908060050180546115d3906123d8565b80601f01602080910402602001604051908101604052809291908181526020018280546115ff906123d8565b801561164c5780601f106116215761010080835404028352916020019161164c565b820191906000526020600020905b81548152906001019060200180831161162f57829003601f168201915b505050505090806006018054611661906123d8565b80601f016020809104026020016040519081016040528092919081815260200182805461168d906123d8565b80156116da5780601f106116af576101008083540402835291602001916116da565b820191906000526020600020905b8154815290600101906020018083116116bd57829003601f168201915b5050505050908060070180546116ef906123d8565b80601f016020809104026020016040519081016040528092919081815260200182805461171b906123d8565b80156117685780601f1061173d57610100808354040283529160200191611768565b820191906000526020600020905b81548152906001019060200180831161174b57829003601f168201915b50505050509080600801549080600901549080600a015490508b565b8160008111801561179757506000548111155b6117b35760405162461bcd60e51b81526004016109ea9061229e565b600180549060006117c383612413565b90915550506040805160e081018252600180548083526020808401888152848601888152336060870152426080870152600060a0870181905260c08701819052938452600383529590922084518155915192820192909255925180519293926118329260028501920190611bde565b5060608201516003820180546001600160a01b0319166001600160a01b039092169190911790556080820151600482015560a082015160058083019190915560c090920151600691820155336000818152602093845260408082206001805482548083018455928552878520909201919091558883529385528082208454815480870183559184529590922090910193909355905491518592917fbec2280c06666f4fdbf563afbc7f86cef1784046b114317dfe05d8862aa587ef916118fb91879142906121ec565b60405180910390a3505050565b600081815260036020819052604090912001546001600160a01b031633146119865760405162461bcd60e51b815260206004820152602b60248201527f4f6e6c792074686520616e7377657220617574686f722063616e20636c61696d60448201526a2074686520626f756e747960a81b60648201526084016109ea565b60008181526003602052604090206001015482146119f55760405162461bcd60e51b815260206004820152602660248201527f416e7377657220646f6573206e6f742062656c6f6e6720746f2074686520717560448201526532b9ba34b7b760d11b60648201526084016109ea565b60008281526007602090815260408083203384528252918290208251808401909352805480845260019091015491830191909152611a755760405162461bcd60e51b815260206004820181905260248201527f4e6f20626f756e747920617661696c61626c6520666f7220636c61696d696e6760448201526064016109ea565b805160006064611a8683600a6123a2565b611a909190612382565b90506000611a9e82846123c1565b6000878152600760209081526040808320338085529252808320838155600101839055519293509183156108fc0291849190818181858888f19350505050158015611aed573d6000803e3d6000fd5b506009546040516001600160a01b039091169083156108fc029084906000818181858888f19350505050158015611b28573d6000803e3d6000fd5b50336001600160a01b031685877f3270fe6a1ffb0660c72ed35bf03a3cf48c163074fd00f367acdbe7c3deeaee8f84604051611b6691815260200190565b60405180910390a4505050505050565b80600081118015611b8957506001548111155b611ba55760405162461bcd60e51b81526004016109ea9061226f565b600082815260036020526040812060050180549161136683612413565b600560205281600052604060002081815481106108de57600080fd5b828054611bea906123d8565b90600052602060002090601f016020900481019282611c0c5760008555611c52565b82601f10611c2557805160ff1916838001178555611c52565b82800160010185558215611c52579182015b82811115611c52578251825591602001919060010190611c37565b50611c5e929150611cb7565b5090565b828054828255906000526020600020908101928215611c52579160200282015b82811115611c5257825182546001600160a01b0319166001600160a01b03909116178255602090920191600190910190611c82565b5b80821115611c5e5760008155600101611cb8565b80356001600160a01b038116811461064f57600080fd5b600082601f830112611cf3578081fd5b813567ffffffffffffffff80821115611d0e57611d0e612444565b604051601f8301601f19908116603f01168101908282118183101715611d3657611d36612444565b81604052838152866020858801011115611d4e578485fd5b8360208701602083013792830160200193909352509392505050565b600060208284031215611d7b578081fd5b611d8482611ccc565b9392505050565b60008060408385031215611d9d578081fd5b611da683611ccc565b946020939093013593505050565b600060208284031215611dc5578081fd5b813567ffffffffffffffff811115611ddb578182fd5b611de784828501611ce3565b949350505050565b600080600080600080600060e0888a031215611e09578283fd5b873567ffffffffffffffff80821115611e20578485fd5b611e2c8b838c01611ce3565b985060208a0135915080821115611e41578485fd5b611e4d8b838c01611ce3565b975060408a0135915080821115611e62578485fd5b611e6e8b838c01611ce3565b965060608a0135915080821115611e83578485fd5b611e8f8b838c01611ce3565b955060808a0135915080821115611ea4578485fd5b611eb08b838c01611ce3565b945060a08a0135915080821115611ec5578384fd5b611ed18b838c01611ce3565b935060c08a0135915080821115611ee6578283fd5b50611ef38a828b01611ce3565b91505092959891949750929550565b600060208284031215611f13578081fd5b5035919050565b60008060408385031215611f2c578182fd5b82359150611f3c60208401611ccc565b90509250929050565b60008060408385031215611f57578182fd5b82359150602083013567ffffffffffffffff811115611f74578182fd5b611f8085828601611ce3565b9150509250929050565b60008060408385031215611f9c578182fd5b50508035926020909101359150565b60008151808452815b81811015611fd057602081850181015186830182015201611fb4565b81811115611fe15782602083870101525b50601f01601f19169290920160200192915050565b6001600160a01b038c16815260006101608060208401526120198184018e611fab565b9050828103604084015261202d818d611fab565b90508281036060840152612041818c611fab565b90508281036080840152612055818b611fab565b905082810360a0840152612069818a611fab565b905082810360c084015261207d8189611fab565b905082810360e08401526120918188611fab565b61010084019690965250506101208101929092526101409091015298975050505050505050565b60006020808301818452808551808352604092508286019150828160051b870101848801865b8381101561219a57603f19898403018552815160e08151855288820151818a87015261210c82870182611fab565b838a0151878b01526060808501516001600160a01b03908116918901919091526080808601519089015260a0808601519089015260c094850151888303958901959095528451808352948c01948d9450918c0192505b8184101561218457845181168352938b019360019390930192918b0191612162565b50509689019694505050908601906001016120de565b509098975050505050505050565b6020808252825182820181905260009190848201906040850190845b818110156121e0578351835292840192918401916001016121c4565b50909695505050505050565b6000606082526121ff6060830186611fab565b6001600160a01b039490941660208301525060400152919050565b60006040825261222d6040830185611fab565b90508260208301529392505050565b60006060825261224f6060830186611fab565b6020830194909452506001600160a01b0391909116604090910152919050565b602080825260159082015274105b9cddd95c88191bd95cc81b9bdd08195e1a5cdd605a1b604082015260600190565b60208082526017908201527f5175657374696f6e20646f6573206e6f74206578697374000000000000000000604082015260600190565b600087825260c060208301526122ee60c0830188611fab565b6040830196909652506001600160a01b03939093166060840152608083019190915260a09091015292915050565b600088825287602083015260e0604083015261233b60e0830188611fab565b6001600160a01b0396909616606083015250608081019390935260a083019190915260c0909101529392505050565b6000821982111561237d5761237d61242e565b500190565b60008261239d57634e487b7160e01b81526012600452602481fd5b500490565b60008160001904831182151516156123bc576123bc61242e565b500290565b6000828210156123d3576123d361242e565b500390565b600181811c908216806123ec57607f821691505b6020821081141561240d57634e487b7160e01b600052602260045260246000fd5b50919050565b60006000198214156124275761242761242e565b5060010190565b634e487b7160e01b600052601160045260246000fd5b634e487b7160e01b600052604160045260246000fdfea26469706673582212205fdd72c613d4d2de2d2ee35d307f1379cebc89564d8529c8730f8290156eafdf64736f6c63430008030033",
  "immutableReferences": {},
  "source": "// SPDX-License-Identifier: MIT\n\n/* This smart contract provides the basic functionality for storing and retrieving \nquestion and answer metadata on the Base blockchain. The actual content\nassociated with the questions and answers are stored on IPFS, and this contract just stores\nthe IPFS file hashes as references.\n\nAlso implements bounty system, reputation/points distribution, defines user profiles, tags, categories, \nand achievement badges.\n*/\n\n\npragma solidity ^0.8.3;\n\ncontract QuestionAnswer {\n    struct Question {\n        uint256 id;\n        string ipfsHash;\n        uint256 timestamp;\n        address author;\n        uint256 views;\n        uint256 bountyAmount;\n        address[] bountyProposers;\n    }\n\n    struct Bounty {\n        uint256 amount;\n        uint256 proposedAt;\n    }\n\n    struct Answer {\n        uint256 id;\n        uint256 questionId;\n        string ipfsHash;\n        address author;\n        uint256 timestamp;\n        uint256 views;\n        uint256 upvoteCount;\n    }\n\n    struct User {\n        address userAddress;\n        string name;\n        string bio;\n        string twitterLink;\n        string websiteLink;\n        string profilePicture;\n        string username;\n        string occupation;\n        uint256 points;\n        uint256 reputation;\n        uint256 lastActivity;\n    }\n\n    uint256 public questionCount;\n    uint256 public answerCount;\n    mapping(uint256 => Question) public questions;\n    mapping(uint256 => Answer) public answers;\n    mapping(address => User) public users;\n    mapping(address => uint256[]) public userAnswers;\n    mapping(uint256 => uint256[]) public questionAnswers;\n    mapping(uint256 => mapping(address => Bounty)) public questionBounties;\n    mapping(uint256 => mapping(address => bool)) public answerUpvotes;\n\n    uint256 public constant BOUNTY_DURATION = 2 weeks;\n\n    // Events\n    event QuestionPosted(uint256 indexed questionId, string ipfsHash, uint256 timestamp, address author);\n    event AnswerPosted(uint256 indexed answerId, uint256 indexed questionId, string ipfsHash, address author, uint256 timestamp);\n    event AnswerUpdated(uint256 indexed answerId, string newIpfsHash, uint256 timestamp);\n    event AnswerUpvoted(uint256 indexed answerId, address indexed upvoter);\n    event BountyProposed(uint256 indexed questionId, address indexed proposer, address indexed recipient, uint256 amount);    event BountyClaimed(uint256 indexed questionId, uint256 indexed answerId, address indexed claimer, uint256 amount);\n    event BountyWithdrawn(uint256 indexed questionId, address indexed withdrawer, uint256 amount);\n\n    address public owner;\n\n    constructor() {\n        owner = msg.sender;\n        questionCount = 0;\n        answerCount = 0;\n    }\n\n    // Modifiers\n    modifier userExists(address user) {\n        require(users[user].userAddress != address(0), \"User does not exist\");\n        _;\n    }\n\n    modifier questionExists(uint256 questionId) {\n        require(questionId > 0 && questionId <= questionCount, \"Question does not exist\");\n        _;\n    }\n\n    modifier answerExists(uint256 answerId) {\n        require(answerId > 0 && answerId <= answerCount, \"Answer does not exist\");\n        _;\n    }\n\n    // Functions\n    function registerUser(\n        string memory name,\n        string memory bio,\n        string memory twitterLink,\n        string memory websiteLink,\n        string memory profilePicture,\n        string memory username,\n        string memory occupation\n    ) public {\n        require(users[msg.sender].userAddress == address(0), \"User already exists\");\n        users[msg.sender] = User(msg.sender, name, bio, twitterLink, websiteLink, profilePicture, username, occupation, 0, 0, block.timestamp);\n    }\n\n    function postQuestion(string memory ipfsHash) public {\n        questionCount = questionCount + 1;\n        questions[questionCount] = Question(questionCount, ipfsHash, block.timestamp, msg.sender, 0, 0, new address[](0));\n        emit QuestionPosted(questionCount, ipfsHash, block.timestamp, msg.sender);\n    }\n\n    function proposeBounty(uint256 _questionId, address _recipient) public payable questionExists(_questionId) {\n        require(msg.value > 0, \"Bounty amount must be greater than 0\");\n        require(_recipient != address(0), \"Invalid recipient address\");\n        require(msg.sender != _recipient, \"Cannot propose bounty to yourself\");\n        \n        questionBounties[_questionId][_recipient] = Bounty(msg.value, block.timestamp);\n        questions[_questionId].bountyAmount += msg.value;\n        questions[_questionId].bountyProposers.push(msg.sender);\n        \n        emit BountyProposed(_questionId, msg.sender, _recipient, msg.value);\n    }\n\n    function withdrawBounty(uint256 _questionId) public questionExists(_questionId) {\n        Bounty memory bounty = questionBounties[_questionId][msg.sender];\n        require(bounty.amount > 0, \"No bounty to withdraw\");\n        require(block.timestamp > bounty.proposedAt + BOUNTY_DURATION, \"Bounty still active\");\n        \n        uint256 amount = bounty.amount;\n        delete questionBounties[_questionId][msg.sender];\n        questions[_questionId].bountyAmount -= amount;\n        payable(msg.sender).transfer(amount);\n        \n        emit BountyWithdrawn(_questionId, msg.sender, amount);\n    }\n\n    function postAnswer(uint256 questionId, string memory ipfsHash) public questionExists(questionId) {\n        answerCount++;\n        answers[answerCount] = Answer(answerCount, questionId, ipfsHash, msg.sender, block.timestamp, 0, 0);\n\n        userAnswers[msg.sender].push(answerCount);\n        questionAnswers[questionId].push(answerCount);\n\n        emit AnswerPosted(answerCount, questionId, ipfsHash, msg.sender, block.timestamp);\n    }\n\n    function updateAnswer(uint256 answerId, string memory newIpfsHash) public answerExists(answerId) {\n        require(answers[answerId].author == msg.sender, \"Only the author can update the answer\");\n        answers[answerId].ipfsHash = newIpfsHash;\n        answers[answerId].timestamp = block.timestamp;\n        emit AnswerUpdated(answerId, newIpfsHash, block.timestamp);\n    }\n\n    function upvoteAnswer(uint256 answerId) public userExists(msg.sender) answerExists(answerId) {\n        require(!answerUpvotes[answerId][msg.sender], \"User has already upvoted this answer\");\n        answerUpvotes[answerId][msg.sender] = true;\n        answers[answerId].upvoteCount++;\n        emit AnswerUpvoted(answerId, msg.sender);\n    }\n\n    function hasUpvoted(uint256 answerId, address user) public view returns (bool) {\n        return answerUpvotes[answerId][user];\n    }\n\n    function claimBounty(uint256 questionId, uint256 answerId) public {\n        require(answers[answerId].author == msg.sender, \"Only the answer author can claim the bounty\");\n        require(answers[answerId].questionId == questionId, \"Answer does not belong to the question\");\n        \n        Bounty memory bounty = questionBounties[questionId][msg.sender];\n        require(bounty.amount > 0, \"No bounty available for claiming\");\n\n        uint256 totalAmount = bounty.amount;\n        uint256 fee = totalAmount * 10 / 100; // 10% fee\n        uint256 authorAmount = totalAmount - fee;\n\n        // Reset the bounty\n        delete questionBounties[questionId][msg.sender];\n\n        // Transfer funds\n        payable(msg.sender).transfer(authorAmount);\n        payable(owner).transfer(fee); // Send fee to contract owner\n\n        emit BountyClaimed(questionId, answerId, msg.sender, authorAmount);\n    }\n\n    function updateUserPoints(address user, uint256 points) internal {\n        users[user].points += points;\n    }\n\n    function updateQuestionViews(uint256 questionId) public questionExists(questionId) {\n        questions[questionId].views++;\n    }\n\n    function updateAnswerViews(uint256 answerId) public answerExists(answerId) {\n        answers[answerId].views++;\n    }\n\n    function getQuestionAnswers(uint256 questionId) public view returns (uint256[] memory) {\n        return questionAnswers[questionId];\n    }\n\n    function getAllQuestions() public view returns (Question[] memory) {\n        Question[] memory allQuestions = new Question[](questionCount);\n        for (uint256 i = 1; i <= questionCount; i++) {\n            allQuestions[i-1] = questions[i];\n        }\n        return allQuestions;\n    }\n}",
  "sourcePath": "/Users/sarahdeng/Sparkl/truffle/contracts/QuestionAnswer.sol",
  "compiler": {
    "name": "solc",
    "version": "0.8.3+commit.8d00100c.Emscripten.clang"
  },
  "schemaVersion": "3.4.16",
  "updatedAt": "2024-07-01T01:42:28.073Z",
  "networkType": "ethereum",
  "devdoc": {
    "kind": "dev",
    "methods": {},
    "version": 1
  },
  "userdoc": {
    "kind": "user",
    "methods": {},
    "version": 1
  }
}