{
  "contractName": "QuestionAnswer",
  "abi": [
    {
      "anonymous": false,
      "inputs": [
        {
          "indexed": true,
          "internalType": "uint256",
          "name": "questionId",
          "type": "uint256"
        },
        {
          "indexed": true,
          "internalType": "uint256",
          "name": "answerId",
          "type": "uint256"
        },
        {
          "indexed": false,
          "internalType": "string",
          "name": "banyanFileId",
          "type": "string"
        },
        {
          "indexed": false,
          "internalType": "uint256",
          "name": "timestamp",
          "type": "uint256"
        },
        {
          "indexed": false,
          "internalType": "address",
          "name": "author",
          "type": "address"
        }
      ],
      "name": "AnswerAdded",
      "type": "event"
    },
    {
      "anonymous": false,
      "inputs": [
        {
          "indexed": true,
          "internalType": "uint256",
          "name": "questionId",
          "type": "uint256"
        },
        {
          "indexed": false,
          "internalType": "string",
          "name": "banyanFileId",
          "type": "string"
        },
        {
          "indexed": false,
          "internalType": "uint256",
          "name": "timestamp",
          "type": "uint256"
        }
      ],
      "name": "QuestionAdded",
      "type": "event"
    },
    {
      "inputs": [
        {
          "internalType": "uint256",
          "name": "",
          "type": "uint256"
        },
        {
          "internalType": "uint256",
          "name": "",
          "type": "uint256"
        }
      ],
      "name": "answers",
      "outputs": [
        {
          "internalType": "string",
          "name": "banyanFileId",
          "type": "string"
        },
        {
          "internalType": "uint256",
          "name": "timestamp",
          "type": "uint256"
        },
        {
          "internalType": "address",
          "name": "author",
          "type": "address"
        }
      ],
      "stateMutability": "view",
      "type": "function",
      "constant": true
    },
    {
      "inputs": [],
      "name": "questionCount",
      "outputs": [
        {
          "internalType": "uint256",
          "name": "",
          "type": "uint256"
        }
      ],
      "stateMutability": "view",
      "type": "function",
      "constant": true
    },
    {
      "inputs": [
        {
          "internalType": "uint256",
          "name": "",
          "type": "uint256"
        }
      ],
      "name": "questions",
      "outputs": [
        {
          "internalType": "string",
          "name": "banyanFileId",
          "type": "string"
        },
        {
          "internalType": "uint256",
          "name": "timestamp",
          "type": "uint256"
        },
        {
          "internalType": "uint256",
          "name": "answerCount",
          "type": "uint256"
        }
      ],
      "stateMutability": "view",
      "type": "function",
      "constant": true
    },
    {
      "inputs": [
        {
          "internalType": "string",
          "name": "_banyanFileId",
          "type": "string"
        }
      ],
      "name": "addQuestion",
      "outputs": [],
      "stateMutability": "nonpayable",
      "type": "function"
    },
    {
      "inputs": [
        {
          "internalType": "uint256",
          "name": "_questionId",
          "type": "uint256"
        },
        {
          "internalType": "string",
          "name": "_banyanFileId",
          "type": "string"
        }
      ],
      "name": "addAnswer",
      "outputs": [],
      "stateMutability": "nonpayable",
      "type": "function"
    },
    {
      "inputs": [
        {
          "internalType": "uint256",
          "name": "_questionId",
          "type": "uint256"
        }
      ],
      "name": "getQuestion",
      "outputs": [
        {
          "internalType": "string",
          "name": "",
          "type": "string"
        },
        {
          "internalType": "uint256",
          "name": "",
          "type": "uint256"
        },
        {
          "internalType": "uint256",
          "name": "",
          "type": "uint256"
        }
      ],
      "stateMutability": "view",
      "type": "function",
      "constant": true
    },
    {
      "inputs": [
        {
          "internalType": "uint256",
          "name": "_questionId",
          "type": "uint256"
        },
        {
          "internalType": "uint256",
          "name": "_answerId",
          "type": "uint256"
        }
      ],
      "name": "getAnswer",
      "outputs": [
        {
          "internalType": "string",
          "name": "",
          "type": "string"
        },
        {
          "internalType": "uint256",
          "name": "",
          "type": "uint256"
        },
        {
          "internalType": "address",
          "name": "",
          "type": "address"
        }
      ],
      "stateMutability": "view",
      "type": "function",
      "constant": true
    }
  ],
  "bytecode": "0x608060405234801561001057600080fd5b50610a6b806100206000396000f3fe608060405234801561001057600080fd5b506004361061007d5760003560e01c80637491995a1161005b5780637491995a146100e2578063a22c1bc9146100f7578063db88176f1461010a578063f129dbd91461011d5761007d565b80631468aa2c146100825780632401519c1461009e57806331b1b978146100c0575b600080fd5b61008b60025481565b6040519081526020015b60405180910390f35b6100b16100ac366004610889565b610130565b60405161009593929190610917565b6100d36100ce36600461082c565b6101ef565b6040516100959392919061094a565b6100f56100f0366004610844565b610299565b005b6100b1610105366004610889565b6103c3565b6100d361011836600461082c565b61052a565b6100f561012b3660046107f1565b610628565b6001602090815260009283526040808420909152908252902080548190610156906109b3565b80601f0160208091040260200160405190810160405280929190818152602001828054610182906109b3565b80156101cf5780601f106101a4576101008083540402835291602001916101cf565b820191906000526020600020905b8154815290600101906020018083116101b257829003601f168201915b5050505060018301546002909301549192916001600160a01b0316905083565b60006020819052908152604090208054819061020a906109b3565b80601f0160208091040260200160405190810160405280929190818152602001828054610236906109b3565b80156102835780601f1061025857610100808354040283529160200191610283565b820191906000526020600020905b81548152906001019060200180831161026657829003601f168201915b5050505050908060010154908060020154905083565b60025482106102c35760405162461bcd60e51b81526004016102ba9061096f565b60405180910390fd5b60408051606081018252828152426020808301919091523382840152600085815260018252838120818352848220600201548252825292909220815180519293849361031292849201906106d1565b506020828101516001830155604092830151600292830180546001600160a01b0319166001600160a01b039092169190911790556000868152908190529182200180549161035f836109ee565b90915550506000838152602081905260409020600201546103829060019061099c565b837f2969785d938a75b390463bfc8e7c38d957fc03b2916a39c634dcfc7dc4dd1d578442336040516103b693929190610917565b60405180910390a3505050565b606060008060025485106103e95760405162461bcd60e51b81526004016102ba9061096f565b600085815260208190526040902060020154841061043d5760405162461bcd60e51b8152602060048201526011602482015270125b9d985b1a5908185b9cddd95c881251607a1b60448201526064016102ba565b600085815260016020908152604080832087845290915280822081516060810190925280548290829061046f906109b3565b80601f016020809104026020016040519081016040528092919081815260200182805461049b906109b3565b80156104e85780601f106104bd576101008083540402835291602001916104e8565b820191906000526020600020905b8154815290600101906020018083116104cb57829003601f168201915b505050918352505060018201546020808301919091526002909201546001600160a01b0316604091820152825191830151920151909891975095509350505050565b606060008060025484106105505760405162461bcd60e51b81526004016102ba9061096f565b600084815260208190526040808220815160608101909252805482908290610577906109b3565b80601f01602080910402602001604051908101604052809291908181526020018280546105a3906109b3565b80156105f05780601f106105c5576101008083540402835291602001916105f0565b820191906000526020600020905b8154815290600101906020018083116105d357829003601f168201915b505050918352505060018201546020808301919091526002909201546040918201528251918301519201519097919650945092505050565b60408051606081018252828152426020808301919091526000828401819052600254815280825292909220815180519293919261066892849201906106d1565b50602082015160018201556040918201516002918201555490517fd2e3647fc837479f6b62a71cf47916be70118af2f2e3a5680d7e5c0a61191141906106b190849042906108f5565b60405180910390a2600280549060006106c9836109ee565b919050555050565b8280546106dd906109b3565b90600052602060002090601f0160209004810192826106ff5760008555610745565b82601f1061071857805160ff1916838001178555610745565b82800160010185558215610745579182015b8281111561074557825182559160200191906001019061072a565b50610751929150610755565b5090565b5b808211156107515760008155600101610756565b600082601f83011261077a578081fd5b813567ffffffffffffffff8082111561079557610795610a1f565b604051601f8301601f19908116603f011681019082821181831017156107bd576107bd610a1f565b816040528381528660208588010111156107d5578485fd5b8360208701602083013792830160200193909352509392505050565b600060208284031215610802578081fd5b813567ffffffffffffffff811115610818578182fd5b6108248482850161076a565b949350505050565b60006020828403121561083d578081fd5b5035919050565b60008060408385031215610856578081fd5b82359150602083013567ffffffffffffffff811115610873578182fd5b61087f8582860161076a565b9150509250929050565b6000806040838503121561089b578182fd5b50508035926020909101359150565b60008151808452815b818110156108cf576020818501810151868301820152016108b3565b818111156108e05782602083870101525b50601f01601f19169290920160200192915050565b60006040825261090860408301856108aa565b90508260208301529392505050565b60006060825261092a60608301866108aa565b6020830194909452506001600160a01b0391909116604090910152919050565b60006060825261095d60608301866108aa565b60208301949094525060400152919050565b602080825260139082015272125b9d985b1a59081c5d595cdd1a5bdb881251606a1b604082015260600190565b6000828210156109ae576109ae610a09565b500390565b600181811c908216806109c757607f821691505b602082108114156109e857634e487b7160e01b600052602260045260246000fd5b50919050565b6000600019821415610a0257610a02610a09565b5060010190565b634e487b7160e01b600052601160045260246000fd5b634e487b7160e01b600052604160045260246000fdfea2646970667358221220abf060802e7403bec04b63882b5110c8255d9f24394291c6c04ae4cd189f90fd64736f6c63430008030033",
  "immutableReferences": {},
  "source": "// SPDX-License-Identifier: MIT\n\n/* This smart contract provides the basic functionality for storing and retrieving \nquestion and answer metadata on the Base blockchain. The actual content (text, images, etc.)\nassociated with the questions and answers are stored on Banyan, and this contract just stores\nthe Banyan file IDs as references.\n*/\n\npragma solidity ^0.8.3;\n\ncontract QuestionAnswer {\n    struct Question {\n        string banyanFileId;\n        uint256 timestamp;\n        uint256 answerCount;\n    }\n\n    struct Answer {\n        string banyanFileId;\n        uint256 timestamp;\n        address author;\n    }\n\n    mapping(uint256 => Question) public questions;\n    mapping(uint256 => mapping(uint256 => Answer)) public answers;\n    uint256 public questionCount;\n\n    event QuestionAdded(uint256 indexed questionId, string banyanFileId, uint256 timestamp);\n    event AnswerAdded(uint256 indexed questionId, uint256 indexed answerId, string banyanFileId, uint256 timestamp, address author);\n\n    function addQuestion(string memory _banyanFileId) public {\n        questions[questionCount] = Question(_banyanFileId, block.timestamp, 0);\n        emit QuestionAdded(questionCount, _banyanFileId, block.timestamp);\n        questionCount++;\n    }\n\n    function addAnswer(uint256 _questionId, string memory _banyanFileId) public {\n        require(_questionId < questionCount, \"Invalid question ID\");\n\n        Answer memory newAnswer = Answer(_banyanFileId, block.timestamp, msg.sender);\n        answers[_questionId][questions[_questionId].answerCount] = newAnswer;\n        questions[_questionId].answerCount++;\n\n        emit AnswerAdded(_questionId, questions[_questionId].answerCount - 1, _banyanFileId, block.timestamp, msg.sender);\n    }\n\n    \n/* To retrieve a question/answer */\n\n    function getQuestion(uint256 _questionId) public view returns (string memory, uint256, uint256) {\n        require(_questionId < questionCount, \"Invalid question ID\");\n\n        Question memory question = questions[_questionId];\n        return (question.banyanFileId, question.timestamp, question.answerCount);\n    }\n\n    function getAnswer(uint256 _questionId, uint256 _answerId) public view returns (string memory, uint256, address) {\n        require(_questionId < questionCount, \"Invalid question ID\");\n        require(_answerId < questions[_questionId].answerCount, \"Invalid answer ID\");\n\n        Answer memory answer = answers[_questionId][_answerId];\n        return (answer.banyanFileId, answer.timestamp, answer.author);\n    }\n}",
  "sourcePath": "/Users/sarahdeng/Sparkl/truffle/contracts/QuestionAnswer.sol",
  "compiler": {
    "name": "solc",
    "version": "0.8.3+commit.8d00100c.Emscripten.clang"
  },
  "schemaVersion": "3.4.16",
  "updatedAt": "2024-06-09T22:45:45.610Z",
  "networkType": "ethereum",
  "devdoc": {
    "kind": "dev",
    "methods": {},
    "version": 1
  },
  "userdoc": {
    "kind": "user",
    "methods": {},
    "version": 1
  }
}