{
  "contractName": "QuestionAnswer",
  "abi": [
    {
      "anonymous": false,
      "inputs": [
        {
          "indexed": true,
          "internalType": "uint256",
          "name": "answerId",
          "type": "uint256"
        },
        {
          "indexed": true,
          "internalType": "address",
          "name": "liker",
          "type": "address"
        }
      ],
      "name": "AnswerLiked",
      "type": "event"
    },
    {
      "anonymous": false,
      "inputs": [
        {
          "indexed": true,
          "internalType": "uint256",
          "name": "answerId",
          "type": "uint256"
        },
        {
          "indexed": true,
          "internalType": "uint256",
          "name": "questionId",
          "type": "uint256"
        },
        {
          "indexed": false,
          "internalType": "string",
          "name": "banyanFileId",
          "type": "string"
        },
        {
          "indexed": false,
          "internalType": "address",
          "name": "author",
          "type": "address"
        },
        {
          "indexed": false,
          "internalType": "uint256",
          "name": "timestamp",
          "type": "uint256"
        }
      ],
      "name": "AnswerPosted",
      "type": "event"
    },
    {
      "anonymous": false,
      "inputs": [
        {
          "indexed": true,
          "internalType": "uint256",
          "name": "questionId",
          "type": "uint256"
        },
        {
          "indexed": true,
          "internalType": "uint256",
          "name": "answerId",
          "type": "uint256"
        },
        {
          "indexed": true,
          "internalType": "address",
          "name": "claimer",
          "type": "address"
        },
        {
          "indexed": false,
          "internalType": "uint256",
          "name": "amount",
          "type": "uint256"
        }
      ],
      "name": "BountyClaimed",
      "type": "event"
    },
    {
      "anonymous": false,
      "inputs": [
        {
          "indexed": true,
          "internalType": "uint256",
          "name": "questionId",
          "type": "uint256"
        },
        {
          "indexed": true,
          "internalType": "address",
          "name": "proposer",
          "type": "address"
        },
        {
          "indexed": false,
          "internalType": "uint256",
          "name": "amount",
          "type": "uint256"
        }
      ],
      "name": "BountyProposed",
      "type": "event"
    },
    {
      "anonymous": false,
      "inputs": [
        {
          "indexed": true,
          "internalType": "uint256",
          "name": "questionId",
          "type": "uint256"
        },
        {
          "indexed": false,
          "internalType": "string",
          "name": "heading",
          "type": "string"
        },
        {
          "indexed": false,
          "internalType": "string",
          "name": "subheading",
          "type": "string"
        },
        {
          "indexed": false,
          "internalType": "string",
          "name": "banyanFileId",
          "type": "string"
        },
        {
          "indexed": false,
          "internalType": "uint256",
          "name": "timestamp",
          "type": "uint256"
        }
      ],
      "name": "QuestionPosted",
      "type": "event"
    },
    {
      "inputs": [],
      "name": "answerCount",
      "outputs": [
        {
          "internalType": "uint256",
          "name": "",
          "type": "uint256"
        }
      ],
      "stateMutability": "view",
      "type": "function",
      "constant": true
    },
    {
      "inputs": [
        {
          "internalType": "uint256",
          "name": "",
          "type": "uint256"
        }
      ],
      "name": "answers",
      "outputs": [
        {
          "internalType": "uint256",
          "name": "id",
          "type": "uint256"
        },
        {
          "internalType": "uint256",
          "name": "questionId",
          "type": "uint256"
        },
        {
          "internalType": "string",
          "name": "banyanFileId",
          "type": "string"
        },
        {
          "internalType": "address",
          "name": "author",
          "type": "address"
        },
        {
          "internalType": "uint256",
          "name": "timestamp",
          "type": "uint256"
        },
        {
          "internalType": "uint256",
          "name": "views",
          "type": "uint256"
        },
        {
          "internalType": "uint256",
          "name": "likes",
          "type": "uint256"
        },
        {
          "internalType": "bool",
          "name": "isDraft",
          "type": "bool"
        },
        {
          "internalType": "bool",
          "name": "hasBounty",
          "type": "bool"
        }
      ],
      "stateMutability": "view",
      "type": "function",
      "constant": true
    },
    {
      "inputs": [
        {
          "internalType": "uint256",
          "name": "",
          "type": "uint256"
        },
        {
          "internalType": "uint256",
          "name": "",
          "type": "uint256"
        }
      ],
      "name": "questionAnswers",
      "outputs": [
        {
          "internalType": "uint256",
          "name": "",
          "type": "uint256"
        }
      ],
      "stateMutability": "view",
      "type": "function",
      "constant": true
    },
    {
      "inputs": [],
      "name": "questionCount",
      "outputs": [
        {
          "internalType": "uint256",
          "name": "",
          "type": "uint256"
        }
      ],
      "stateMutability": "view",
      "type": "function",
      "constant": true
    },
    {
      "inputs": [
        {
          "internalType": "uint256",
          "name": "",
          "type": "uint256"
        }
      ],
      "name": "questions",
      "outputs": [
        {
          "internalType": "uint256",
          "name": "id",
          "type": "uint256"
        },
        {
          "internalType": "string",
          "name": "heading",
          "type": "string"
        },
        {
          "internalType": "string",
          "name": "subheading",
          "type": "string"
        },
        {
          "internalType": "string",
          "name": "banyanFileId",
          "type": "string"
        },
        {
          "internalType": "uint256",
          "name": "timestamp",
          "type": "uint256"
        },
        {
          "internalType": "uint256",
          "name": "views",
          "type": "uint256"
        },
        {
          "internalType": "uint256",
          "name": "bountyAmount",
          "type": "uint256"
        }
      ],
      "stateMutability": "view",
      "type": "function",
      "constant": true
    },
    {
      "inputs": [
        {
          "internalType": "address",
          "name": "",
          "type": "address"
        },
        {
          "internalType": "uint256",
          "name": "",
          "type": "uint256"
        }
      ],
      "name": "userAnswers",
      "outputs": [
        {
          "internalType": "uint256",
          "name": "",
          "type": "uint256"
        }
      ],
      "stateMutability": "view",
      "type": "function",
      "constant": true
    },
    {
      "inputs": [
        {
          "internalType": "address",
          "name": "",
          "type": "address"
        }
      ],
      "name": "users",
      "outputs": [
        {
          "internalType": "address",
          "name": "userAddress",
          "type": "address"
        },
        {
          "internalType": "string",
          "name": "name",
          "type": "string"
        },
        {
          "internalType": "string",
          "name": "bio",
          "type": "string"
        },
        {
          "internalType": "string",
          "name": "twitterLink",
          "type": "string"
        },
        {
          "internalType": "string",
          "name": "websiteLink",
          "type": "string"
        },
        {
          "internalType": "string",
          "name": "profilePicture",
          "type": "string"
        },
        {
          "internalType": "string",
          "name": "username",
          "type": "string"
        },
        {
          "internalType": "string",
          "name": "occupation",
          "type": "string"
        },
        {
          "internalType": "uint256",
          "name": "points",
          "type": "uint256"
        },
        {
          "internalType": "uint256",
          "name": "reputation",
          "type": "uint256"
        },
        {
          "internalType": "uint256",
          "name": "lastActivity",
          "type": "uint256"
        }
      ],
      "stateMutability": "view",
      "type": "function",
      "constant": true
    },
    {
      "inputs": [
        {
          "internalType": "string",
          "name": "name",
          "type": "string"
        },
        {
          "internalType": "string",
          "name": "bio",
          "type": "string"
        },
        {
          "internalType": "string",
          "name": "twitterLink",
          "type": "string"
        },
        {
          "internalType": "string",
          "name": "websiteLink",
          "type": "string"
        },
        {
          "internalType": "string",
          "name": "profilePicture",
          "type": "string"
        },
        {
          "internalType": "string",
          "name": "username",
          "type": "string"
        },
        {
          "internalType": "string",
          "name": "occupation",
          "type": "string"
        }
      ],
      "name": "registerUser",
      "outputs": [],
      "stateMutability": "nonpayable",
      "type": "function"
    },
    {
      "inputs": [
        {
          "internalType": "string",
          "name": "heading",
          "type": "string"
        },
        {
          "internalType": "string",
          "name": "subheading",
          "type": "string"
        },
        {
          "internalType": "string",
          "name": "banyanFileId",
          "type": "string"
        }
      ],
      "name": "postQuestion",
      "outputs": [],
      "stateMutability": "nonpayable",
      "type": "function"
    },
    {
      "inputs": [
        {
          "internalType": "uint256",
          "name": "questionId",
          "type": "uint256"
        },
        {
          "internalType": "string",
          "name": "banyanFileId",
          "type": "string"
        },
        {
          "internalType": "bool",
          "name": "isDraft",
          "type": "bool"
        }
      ],
      "name": "postAnswer",
      "outputs": [],
      "stateMutability": "nonpayable",
      "type": "function"
    },
    {
      "inputs": [
        {
          "internalType": "uint256",
          "name": "answerId",
          "type": "uint256"
        }
      ],
      "name": "likeAnswer",
      "outputs": [],
      "stateMutability": "nonpayable",
      "type": "function"
    },
    {
      "inputs": [
        {
          "internalType": "uint256",
          "name": "questionId",
          "type": "uint256"
        },
        {
          "internalType": "uint256",
          "name": "amount",
          "type": "uint256"
        }
      ],
      "name": "proposeBounty",
      "outputs": [],
      "stateMutability": "payable",
      "type": "function",
      "payable": true
    },
    {
      "inputs": [
        {
          "internalType": "uint256",
          "name": "questionId",
          "type": "uint256"
        },
        {
          "internalType": "uint256",
          "name": "answerId",
          "type": "uint256"
        }
      ],
      "name": "claimBounty",
      "outputs": [],
      "stateMutability": "nonpayable",
      "type": "function"
    },
    {
      "inputs": [
        {
          "internalType": "uint256",
          "name": "questionId",
          "type": "uint256"
        }
      ],
      "name": "updateQuestionViews",
      "outputs": [],
      "stateMutability": "nonpayable",
      "type": "function"
    },
    {
      "inputs": [
        {
          "internalType": "uint256",
          "name": "answerId",
          "type": "uint256"
        }
      ],
      "name": "updateAnswerViews",
      "outputs": [],
      "stateMutability": "nonpayable",
      "type": "function"
    }
  ],
  "bytecode": "0x608060405234801561001057600080fd5b50611cd6806100206000396000f3fe6080604052600436106100e85760003560e01c806331b1b9781161008a578063de03fe1d11610059578063de03fe1d14610280578063e3518483146102a0578063fa2f52c5146102c0578063faf99c87146102e0576100e8565b806331b1b978146101d65780634ae8af09146102095780639104861314610229578063a87430ba14610249576100e8565b80631468aa2c116100c65780631468aa2c1461014b57806317599cc5146101615780632c3664b8146101965780632e809333146101b6576100e8565b80630bed0502146100ed578063107bf0c41461011657806312ad99df1461012b575b600080fd5b3480156100f957600080fd5b5061010360015481565b6040519081526020015b60405180910390f35b6101296101243660046118b5565b610300565b005b34801561013757600080fd5b506101296101463660046116a9565b610477565b34801561015757600080fd5b5061010360005481565b34801561016d57600080fd5b5061018161017c366004611840565b610626565b60405161010d99989796959493929190611b4e565b3480156101a257600080fd5b506101296101b1366004611840565b610706565b3480156101c257600080fd5b506101036101d13660046118b5565b6107be565b3480156101e257600080fd5b506101f66101f1366004611840565b6107ef565b60405161010d9796959493929190611aef565b34801561021557600080fd5b5061012961022436600461172d565b6109c2565b34801561023557600080fd5b50610129610244366004611840565b610b8a565b34801561025557600080fd5b5061026961026436600461165f565b610bdf565b60405161010d9b9a99989796959493929190611921565b34801561028c57600080fd5b5061012961029b3660046118b5565b610ff4565b3480156102ac57600080fd5b506101296102bb366004611858565b6112b7565b3480156102cc57600080fd5b506101296102db366004611840565b6114bb565b3480156102ec57600080fd5b506101036102fb366004611680565b611507565b336000818152600460205260409020546001600160a01b031661033e5760405162461bcd60e51b815260040161033590611ac2565b60405180910390fd5b8260008111801561035157506000548111155b61036d5760405162461bcd60e51b815260040161033590611a8b565b8234146103bc5760405162461bcd60e51b815260206004820152601f60248201527f416d6f756e74206d69736d6174636820776974682073656e742076616c7565006044820152606401610335565b60008481526002602090815260408083203384526008810190925282208054919286926103ea908490611bb0565b92505081905550838160060160008282546104059190611bb0565b9091555050600781018054600181018255600091825260209091200180546001600160a01b0319163390811790915560405186907f70f218c57229cc72ace59f33ddc631c235af53202023259d4c649c85cd4213bc906104689088815260200190565b60405180910390a35050505050565b336000818152600460205260409020546001600160a01b03166104ac5760405162461bcd60e51b815260040161033590611ac2565b6096845111156104fe5760405162461bcd60e51b815260206004820152601f60248201527f48656164696e67206578636565647320636861726163746572206c696d6974006044820152606401610335565b6101908351111561055c5760405162461bcd60e51b815260206004820152602260248201527f53756268656164696e67206578636565647320636861726163746572206c696d6044820152611a5d60f21b6064820152608401610335565b60008054908061056b83611c59565b9091555050600080548082526002602090815260409092209081558551909161059b916001840191880190611523565b5083516105b19060028301906020870190611523565b5082516105c79060038301906020860190611523565b504260048201819055600060058301819055600683018190555460405190917f683f155177100dd7a35085ef8831410ab8e582a17ef2b4d87124af64f776a2c39161061791899189918991611a11565b60405180910390a25050505050565b6003602052600090815260409020805460018201546002830180549293919261064e90611c1e565b80601f016020809104026020016040519081016040528092919081815260200182805461067a90611c1e565b80156106c75780601f1061069c576101008083540402835291602001916106c7565b820191906000526020600020905b8154815290600101906020018083116106aa57829003601f168201915b505050600384015460048501546005860154600687015460079097015495966001600160a01b0390931695919450925060ff8082169161010090041689565b336000818152600460205260409020546001600160a01b031661073b5760405162461bcd60e51b815260040161033590611ac2565b8160008111801561074e57506001548111155b61076a5760405162461bcd60e51b815260040161033590611a5c565b600083815260036020526040812060060180549161078783611c59565b9091555050604051339084907f0e8b8139d887765e0c98b7c346f79d389511d563f502e45a1f1bb057a09a4b6190600090a3505050565b600660205281600052604060002081815481106107da57600080fd5b90600052602060002001600091509150505481565b6002602052600090815260409020805460018201805491929161081190611c1e565b80601f016020809104026020016040519081016040528092919081815260200182805461083d90611c1e565b801561088a5780601f1061085f5761010080835404028352916020019161088a565b820191906000526020600020905b81548152906001019060200180831161086d57829003601f168201915b50505050509080600201805461089f90611c1e565b80601f01602080910402602001604051908101604052809291908181526020018280546108cb90611c1e565b80156109185780601f106108ed57610100808354040283529160200191610918565b820191906000526020600020905b8154815290600101906020018083116108fb57829003601f168201915b50505050509080600301805461092d90611c1e565b80601f016020809104026020016040519081016040528092919081815260200182805461095990611c1e565b80156109a65780601f1061097b576101008083540402835291602001916109a6565b820191906000526020600020905b81548152906001019060200180831161098957829003601f168201915b5050505050908060040154908060050154908060060154905087565b336000908152600460205260409020546001600160a01b031615610a1e5760405162461bcd60e51b81526020600482015260136024820152725573657220616c72656164792065786973747360681b6044820152606401610335565b60408051610160810182523380825260208083018b81528385018b9052606084018a90526080840189905260a0840188905260c0840187905260e08401869052600061010085018190526101208501819052426101408601529283526004825293909120825181546001600160a01b0319166001600160a01b0390911617815592518051929392610ab59260018501920190611523565b5060408201518051610ad1916002840191602090910190611523565b5060608201518051610aed916003840191602090910190611523565b5060808201518051610b09916004840191602090910190611523565b5060a08201518051610b25916005840191602090910190611523565b5060c08201518051610b41916006840191602090910190611523565b5060e08201518051610b5d916007840191602090910190611523565b506101008201516008820155610120820151600982015561014090910151600a9091015550505050505050565b80600081118015610b9d57506000548111155b610bb95760405162461bcd60e51b815260040161033590611a8b565b6000828152600260205260408120600501805491610bd683611c59565b91905055505050565b600460205260009081526040902080546001820180546001600160a01b039092169291610c0b90611c1e565b80601f0160208091040260200160405190810160405280929190818152602001828054610c3790611c1e565b8015610c845780601f10610c5957610100808354040283529160200191610c84565b820191906000526020600020905b815481529060010190602001808311610c6757829003601f168201915b505050505090806002018054610c9990611c1e565b80601f0160208091040260200160405190810160405280929190818152602001828054610cc590611c1e565b8015610d125780601f10610ce757610100808354040283529160200191610d12565b820191906000526020600020905b815481529060010190602001808311610cf557829003601f168201915b505050505090806003018054610d2790611c1e565b80601f0160208091040260200160405190810160405280929190818152602001828054610d5390611c1e565b8015610da05780601f10610d7557610100808354040283529160200191610da0565b820191906000526020600020905b815481529060010190602001808311610d8357829003601f168201915b505050505090806004018054610db590611c1e565b80601f0160208091040260200160405190810160405280929190818152602001828054610de190611c1e565b8015610e2e5780601f10610e0357610100808354040283529160200191610e2e565b820191906000526020600020905b815481529060010190602001808311610e1157829003601f168201915b505050505090806005018054610e4390611c1e565b80601f0160208091040260200160405190810160405280929190818152602001828054610e6f90611c1e565b8015610ebc5780601f10610e9157610100808354040283529160200191610ebc565b820191906000526020600020905b815481529060010190602001808311610e9f57829003601f168201915b505050505090806006018054610ed190611c1e565b80601f0160208091040260200160405190810160405280929190818152602001828054610efd90611c1e565b8015610f4a5780601f10610f1f57610100808354040283529160200191610f4a565b820191906000526020600020905b815481529060010190602001808311610f2d57829003601f168201915b505050505090806007018054610f5f90611c1e565b80601f0160208091040260200160405190810160405280929190818152602001828054610f8b90611c1e565b8015610fd85780601f10610fad57610100808354040283529160200191610fd8565b820191906000526020600020905b815481529060010190602001808311610fbb57829003601f168201915b50505050509080600801549080600901549080600a015490508b565b336000818152600460205260409020546001600160a01b03166110295760405162461bcd60e51b815260040161033590611ac2565b8260008111801561103c57506000548111155b6110585760405162461bcd60e51b815260040161033590611a8b565b8260008111801561106b57506001548111155b6110875760405162461bcd60e51b815260040161033590611a5c565b600084815260036020819052604090912001546001600160a01b031633146110fd5760405162461bcd60e51b8152602060048201526024808201527f4f6e6c792074686520617574686f722063616e20636c61696d2074686520626f604482015263756e747960e01b6064820152608401610335565b600084815260036020526040902060010154851461116c5760405162461bcd60e51b815260206004820152602660248201527f416e7377657220646f6573206e6f742062656c6f6e6720746f2074686520717560448201526532b9ba34b7b760d11b6064820152608401610335565b600084815260036020526040902060070154610100900460ff166111e05760405162461bcd60e51b815260206004820152602560248201527f4e6f20626f756e7479206173736f6369617465642077697468207468697320616044820152643739bbb2b960d91b6064820152608401610335565b60008581526002602052604081206006015490606461120083600a611be8565b61120a9190611bc8565b905060006112188284611c07565b604051909150339082156108fc029083906000818181858888f19350505050158015611248573d6000803e3d6000fd5b5060008881526002602090815260408083206006018390558983526003825291829020600701805461ff00191690559051828152339189918b917f3270fe6a1ffb0660c72ed35bf03a3cf48c163074fd00f367acdbe7c3deeaee8f910160405180910390a45050505050505050565b336000818152600460205260409020546001600160a01b03166112ec5760405162461bcd60e51b815260040161033590611ac2565b836000811180156112ff57506000548111155b61131b5760405162461bcd60e51b815260040161033590611a8b565b6001805490600061132b83611c59565b909155505060408051610120810182526001805480835260208084018a81528486018a8152336060870152426080870152600060a0870181905260c087018190528a151560e08801528c8152600280855288822060060154151561010089015294815260038452969096208551815590519381019390935593518051939492936113bd93928501929190910190611523565b5060608201516003820180546001600160a01b0319166001600160a01b039092169190911790556080820151600482015560a082015160058083019190915560c083015160068084019190915560e0840151600790930180546101009586015161ffff1990911694151561ff0019169490941793151590940292909217909255336000818152602093845260408082206001805482548083018455928552878520909201919091558a83529385528082208454815480870183559184529590922090910193909355905491518792917fbec2280c06666f4fdbf563afbc7f86cef1784046b114317dfe05d8862aa587ef9161046891899142906119e3565b806000811180156114ce57506001548111155b6114ea5760405162461bcd60e51b815260040161033590611a5c565b6000828152600360205260408120600501805491610bd683611c59565b600560205281600052604060002081815481106107da57600080fd5b82805461152f90611c1e565b90600052602060002090601f0160209004810192826115515760008555611597565b82601f1061156a57805160ff1916838001178555611597565b82800160010185558215611597579182015b8281111561159757825182559160200191906001019061157c565b506115a39291506115a7565b5090565b5b808211156115a357600081556001016115a8565b80356001600160a01b03811681146115d357600080fd5b919050565b600082601f8301126115e8578081fd5b813567ffffffffffffffff8082111561160357611603611c8a565b604051601f8301601f19908116603f0116810190828211818310171561162b5761162b611c8a565b81604052838152866020858801011115611643578485fd5b8360208701602083013792830160200193909352509392505050565b600060208284031215611670578081fd5b611679826115bc565b9392505050565b60008060408385031215611692578081fd5b61169b836115bc565b946020939093013593505050565b6000806000606084860312156116bd578081fd5b833567ffffffffffffffff808211156116d4578283fd5b6116e0878388016115d8565b945060208601359150808211156116f5578283fd5b611701878388016115d8565b93506040860135915080821115611716578283fd5b50611723868287016115d8565b9150509250925092565b600080600080600080600060e0888a031215611747578283fd5b873567ffffffffffffffff8082111561175e578485fd5b61176a8b838c016115d8565b985060208a013591508082111561177f578485fd5b61178b8b838c016115d8565b975060408a01359150808211156117a0578485fd5b6117ac8b838c016115d8565b965060608a01359150808211156117c1578485fd5b6117cd8b838c016115d8565b955060808a01359150808211156117e2578485fd5b6117ee8b838c016115d8565b945060a08a0135915080821115611803578384fd5b61180f8b838c016115d8565b935060c08a0135915080821115611824578283fd5b506118318a828b016115d8565b91505092959891949750929550565b600060208284031215611851578081fd5b5035919050565b60008060006060848603121561186c578283fd5b83359250602084013567ffffffffffffffff811115611889578283fd5b611895868287016115d8565b925050604084013580151581146118aa578182fd5b809150509250925092565b600080604083850312156118c7578182fd5b50508035926020909101359150565b60008151808452815b818110156118fb576020818501810151868301820152016118df565b8181111561190c5782602083870101525b50601f01601f19169290920160200192915050565b6001600160a01b038c16815260006101608060208401526119448184018e6118d6565b90508281036040840152611958818d6118d6565b9050828103606084015261196c818c6118d6565b90508281036080840152611980818b6118d6565b905082810360a0840152611994818a6118d6565b905082810360c08401526119a881896118d6565b905082810360e08401526119bc81886118d6565b61010084019690965250506101208101929092526101409091015298975050505050505050565b6000606082526119f660608301866118d6565b6001600160a01b039490941660208301525060400152919050565b600060808252611a2460808301876118d6565b8281036020840152611a3681876118d6565b90508281036040840152611a4a81866118d6565b91505082606083015295945050505050565b602080825260159082015274105b9cddd95c88191bd95cc81b9bdd08195e1a5cdd605a1b604082015260600190565b60208082526017908201527f5175657374696f6e20646f6573206e6f74206578697374000000000000000000604082015260600190565b602080825260139082015272155cd95c88191bd95cc81b9bdd08195e1a5cdd606a1b604082015260600190565b600088825260e06020830152611b0860e08301896118d6565b8281036040840152611b1a81896118d6565b90508281036060840152611b2e81886118d6565b6080840196909652505060a081019290925260c090910152949350505050565b60006101208b83528a6020840152806040840152611b6e8184018b6118d6565b6001600160a01b039990991660608401525050608081019590955260a085019390935260c0840191909152151560e08301521515610100909101529392505050565b60008219821115611bc357611bc3611c74565b500190565b600082611be357634e487b7160e01b81526012600452602481fd5b500490565b6000816000190483118215151615611c0257611c02611c74565b500290565b600082821015611c1957611c19611c74565b500390565b600181811c90821680611c3257607f821691505b60208210811415611c5357634e487b7160e01b600052602260045260246000fd5b50919050565b6000600019821415611c6d57611c6d611c74565b5060010190565b634e487b7160e01b600052601160045260246000fd5b634e487b7160e01b600052604160045260246000fdfea26469706673582212205132e3f9b1255103a053c10fe98ac59c057980deca9860df2938304d6a40725164736f6c63430008030033",
  "immutableReferences": {},
  "source": "// SPDX-License-Identifier: MIT\n\n/* This smart contract provides the basic functionality for storing and retrieving \nquestion and answer metadata on the Base blockchain. The actual content\nassociated with the questions and answers are stored on Banyan, and this contract just stores\nthe Banyan file IDs as references.\n\nAlso implements bounty system, reputation/points distribution, defines user profiles, tags, categories, \nand achievement badges.\n*/\npragma solidity ^0.8.3;\n\ncontract QuestionAnswer {\n    struct Question {\n        uint256 id;\n        string heading;\n        string subheading;\n        string banyanFileId;\n        uint256 timestamp;\n        uint256 views;\n        uint256 bountyAmount;\n        address[] bountyProposers;\n        mapping(address => uint256) bounties;\n    }\n\n    struct Answer {\n        uint256 id;\n        uint256 questionId;\n        string banyanFileId;\n        address author;\n        uint256 timestamp;\n        uint256 views;\n        uint256 likes;\n        bool isDraft;\n        bool hasBounty;\n    }\n\n    struct User {\n        address userAddress;\n        string name;\n        string bio;\n        string twitterLink;\n        string websiteLink;\n        string profilePicture;\n        string username;\n        string occupation;\n        uint256 points;\n        uint256 reputation;\n        uint256 lastActivity;\n    }\n\n    uint256 public questionCount;\n    uint256 public answerCount;\n    mapping(uint256 => Question) public questions;\n    mapping(uint256 => Answer) public answers;\n    mapping(address => User) public users;\n    mapping(address => uint256[]) public userAnswers;\n    mapping(uint256 => uint256[]) public questionAnswers;\n\n    // Events\n    event QuestionPosted(uint256 indexed questionId, string heading, string subheading, string banyanFileId, uint256 timestamp);\n    event AnswerPosted(uint256 indexed answerId, uint256 indexed questionId, string banyanFileId, address author, uint256 timestamp);\n    event AnswerLiked(uint256 indexed answerId, address indexed liker);\n    event BountyProposed(uint256 indexed questionId, address indexed proposer, uint256 amount);\n    event BountyClaimed(uint256 indexed questionId, uint256 indexed answerId, address indexed claimer, uint256 amount);\n\n    // Modifier to check if user exists\n    modifier userExists(address user) {\n        require(users[user].userAddress != address(0), \"User does not exist\");\n        _;\n    }\n\n    // Modifier to check if question exists\n    modifier questionExists(uint256 questionId) {\n        require(questionId > 0 && questionId <= questionCount, \"Question does not exist\");\n        _;\n    }\n\n    // Modifier to check if answer exists\n    modifier answerExists(uint256 answerId) {\n        require(answerId > 0 && answerId <= answerCount, \"Answer does not exist\");\n        _;\n    }\n\n    // Function to register a new user\n    function registerUser(\n        string memory name,\n        string memory bio,\n        string memory twitterLink,\n        string memory websiteLink,\n        string memory profilePicture,\n        string memory username,\n        string memory occupation\n    ) public {\n        require(users[msg.sender].userAddress == address(0), \"User already exists\");\n        users[msg.sender] = User(msg.sender, name, bio, twitterLink, websiteLink, profilePicture, username, occupation, 0, 0, block.timestamp);\n    }\n\n    // Function to post a new question\n    function postQuestion(\n        string memory heading,\n        string memory subheading,\n        string memory banyanFileId\n    ) public userExists(msg.sender) {\n        require(bytes(heading).length <= 150, \"Heading exceeds character limit\");\n        require(bytes(subheading).length <= 400, \"Subheading exceeds character limit\");\n\n        questionCount++;\n        Question storage newQuestion = questions[questionCount];\n        newQuestion.id = questionCount;\n        newQuestion.heading = heading;\n        newQuestion.subheading = subheading;\n        newQuestion.banyanFileId = banyanFileId;\n        newQuestion.timestamp = block.timestamp;\n        newQuestion.views = 0;\n        newQuestion.bountyAmount = 0;\n        \n        emit QuestionPosted(questionCount, heading, subheading, banyanFileId, block.timestamp);\n    }\n\n    // Function to post a new answer\n    function postAnswer(\n        uint256 questionId,\n        string memory banyanFileId,\n        bool isDraft\n    ) public userExists(msg.sender) questionExists(questionId) {\n        answerCount++;\n        answers[answerCount] = Answer(answerCount, questionId, banyanFileId, msg.sender, block.timestamp, 0, 0, isDraft, questions[questionId].bountyAmount > 0);\n\n        userAnswers[msg.sender].push(answerCount);\n        questionAnswers[questionId].push(answerCount);\n\n        emit AnswerPosted(answerCount, questionId, banyanFileId, msg.sender, block.timestamp);\n    }\n\n    // Function to like an answer\n    function likeAnswer(uint256 answerId) public userExists(msg.sender) answerExists(answerId) {\n        answers[answerId].likes++;\n        emit AnswerLiked(answerId, msg.sender);\n    }\n\n    // Function to propose a bounty for a question\n    function proposeBounty(uint256 questionId, uint256 amount) public payable userExists(msg.sender) questionExists(questionId) {\n        require(msg.value == amount, \"Amount mismatch with sent value\");\n        Question storage q = questions[questionId];\n        q.bounties[msg.sender] += amount;\n        q.bountyAmount += amount;\n        q.bountyProposers.push(msg.sender);\n        emit BountyProposed(questionId, msg.sender, amount);\n    }\n\n    // Function to claim a bounty for an answered question\n    function claimBounty(uint256 questionId, uint256 answerId) public userExists(msg.sender) questionExists(questionId) answerExists(answerId) {\n        require(answers[answerId].author == msg.sender, \"Only the author can claim the bounty\");\n        require(answers[answerId].questionId == questionId, \"Answer does not belong to the question\");\n        require(answers[answerId].hasBounty, \"No bounty associated with this answer\");\n\n        uint256 totalBounty = questions[questionId].bountyAmount;\n        uint256 appFee = (totalBounty * 10) / 100;\n        uint256 authorAmount = totalBounty - appFee;\n\n        // Transfer bounty to the author\n        payable(msg.sender).transfer(authorAmount);\n        questions[questionId].bountyAmount = 0;\n        answers[answerId].hasBounty = false;\n\n        emit BountyClaimed(questionId, answerId, msg.sender, authorAmount);\n    }\n\n    // Function to update user points\n    function updateUserPoints(address user, uint256 points) internal {\n        users[user].points += points;\n    }\n\n    // Function to update question views\n    function updateQuestionViews(uint256 questionId) public questionExists(questionId) {\n        questions[questionId].views++;\n    }\n\n    // Function to update answer views\n    function updateAnswerViews(uint256 answerId) public answerExists(answerId) {\n        answers[answerId].views++;\n    }\n\n    // Additional helper functions for fetching data can be added here\n}\n",
  "sourcePath": "/Users/sarahdeng/Sparkl/truffle/contracts/QuestionAnswer.sol",
  "compiler": {
    "name": "solc",
    "version": "0.8.3+commit.8d00100c.Emscripten.clang"
  },
  "schemaVersion": "3.4.16",
  "updatedAt": "2024-06-13T18:45:53.387Z",
  "networkType": "ethereum",
  "devdoc": {
    "kind": "dev",
    "methods": {},
    "version": 1
  },
  "userdoc": {
    "kind": "user",
    "methods": {},
    "version": 1
  }
}