{
  "contractName": "QuestionAnswer",
  "abi": [
    {
      "anonymous": false,
      "inputs": [
        {
          "indexed": true,
          "internalType": "uint256",
          "name": "answerId",
          "type": "uint256"
        },
        {
          "indexed": true,
          "internalType": "address",
          "name": "liker",
          "type": "address"
        }
      ],
      "name": "AnswerLiked",
      "type": "event"
    },
    {
      "anonymous": false,
      "inputs": [
        {
          "indexed": true,
          "internalType": "uint256",
          "name": "answerId",
          "type": "uint256"
        },
        {
          "indexed": true,
          "internalType": "uint256",
          "name": "questionId",
          "type": "uint256"
        },
        {
          "indexed": false,
          "internalType": "string",
          "name": "banyanFileId",
          "type": "string"
        },
        {
          "indexed": false,
          "internalType": "address",
          "name": "author",
          "type": "address"
        },
        {
          "indexed": false,
          "internalType": "uint256",
          "name": "timestamp",
          "type": "uint256"
        }
      ],
      "name": "AnswerPosted",
      "type": "event"
    },
    {
      "anonymous": false,
      "inputs": [
        {
          "indexed": true,
          "internalType": "uint256",
          "name": "questionId",
          "type": "uint256"
        },
        {
          "indexed": true,
          "internalType": "uint256",
          "name": "answerId",
          "type": "uint256"
        },
        {
          "indexed": true,
          "internalType": "address",
          "name": "claimer",
          "type": "address"
        },
        {
          "indexed": false,
          "internalType": "uint256",
          "name": "amount",
          "type": "uint256"
        }
      ],
      "name": "BountyClaimed",
      "type": "event"
    },
    {
      "anonymous": false,
      "inputs": [
        {
          "indexed": true,
          "internalType": "uint256",
          "name": "questionId",
          "type": "uint256"
        },
        {
          "indexed": true,
          "internalType": "address",
          "name": "proposer",
          "type": "address"
        },
        {
          "indexed": false,
          "internalType": "uint256",
          "name": "amount",
          "type": "uint256"
        }
      ],
      "name": "BountyProposed",
      "type": "event"
    },
    {
      "anonymous": false,
      "inputs": [
        {
          "indexed": true,
          "internalType": "uint256",
          "name": "questionId",
          "type": "uint256"
        },
        {
          "indexed": false,
          "internalType": "string",
          "name": "heading",
          "type": "string"
        },
        {
          "indexed": false,
          "internalType": "string",
          "name": "subheading",
          "type": "string"
        },
        {
          "indexed": false,
          "internalType": "string",
          "name": "banyanFileId",
          "type": "string"
        },
        {
          "indexed": false,
          "internalType": "uint256",
          "name": "timestamp",
          "type": "uint256"
        }
      ],
      "name": "QuestionPosted",
      "type": "event"
    },
    {
      "inputs": [],
      "name": "answerCount",
      "outputs": [
        {
          "internalType": "uint256",
          "name": "",
          "type": "uint256"
        }
      ],
      "stateMutability": "view",
      "type": "function",
      "constant": true
    },
    {
      "inputs": [
        {
          "internalType": "uint256",
          "name": "",
          "type": "uint256"
        }
      ],
      "name": "answers",
      "outputs": [
        {
          "internalType": "uint256",
          "name": "id",
          "type": "uint256"
        },
        {
          "internalType": "uint256",
          "name": "questionId",
          "type": "uint256"
        },
        {
          "internalType": "string",
          "name": "banyanFileId",
          "type": "string"
        },
        {
          "internalType": "address",
          "name": "author",
          "type": "address"
        },
        {
          "internalType": "uint256",
          "name": "timestamp",
          "type": "uint256"
        },
        {
          "internalType": "uint256",
          "name": "views",
          "type": "uint256"
        },
        {
          "internalType": "uint256",
          "name": "likes",
          "type": "uint256"
        },
        {
          "internalType": "bool",
          "name": "isDraft",
          "type": "bool"
        },
        {
          "internalType": "bool",
          "name": "hasBounty",
          "type": "bool"
        }
      ],
      "stateMutability": "view",
      "type": "function",
      "constant": true
    },
    {
      "inputs": [
        {
          "internalType": "uint256",
          "name": "",
          "type": "uint256"
        },
        {
          "internalType": "uint256",
          "name": "",
          "type": "uint256"
        }
      ],
      "name": "questionAnswers",
      "outputs": [
        {
          "internalType": "uint256",
          "name": "",
          "type": "uint256"
        }
      ],
      "stateMutability": "view",
      "type": "function",
      "constant": true
    },
    {
      "inputs": [],
      "name": "questionCount",
      "outputs": [
        {
          "internalType": "uint256",
          "name": "",
          "type": "uint256"
        }
      ],
      "stateMutability": "view",
      "type": "function",
      "constant": true
    },
    {
      "inputs": [
        {
          "internalType": "uint256",
          "name": "",
          "type": "uint256"
        }
      ],
      "name": "questions",
      "outputs": [
        {
          "internalType": "uint256",
          "name": "id",
          "type": "uint256"
        },
        {
          "internalType": "string",
          "name": "heading",
          "type": "string"
        },
        {
          "internalType": "string",
          "name": "subheading",
          "type": "string"
        },
        {
          "internalType": "string",
          "name": "banyanFileId",
          "type": "string"
        },
        {
          "internalType": "uint256",
          "name": "timestamp",
          "type": "uint256"
        },
        {
          "internalType": "uint256",
          "name": "views",
          "type": "uint256"
        },
        {
          "internalType": "uint256",
          "name": "bountyAmount",
          "type": "uint256"
        }
      ],
      "stateMutability": "view",
      "type": "function",
      "constant": true
    },
    {
      "inputs": [
        {
          "internalType": "address",
          "name": "",
          "type": "address"
        },
        {
          "internalType": "uint256",
          "name": "",
          "type": "uint256"
        }
      ],
      "name": "userAnswers",
      "outputs": [
        {
          "internalType": "uint256",
          "name": "",
          "type": "uint256"
        }
      ],
      "stateMutability": "view",
      "type": "function",
      "constant": true
    },
    {
      "inputs": [
        {
          "internalType": "address",
          "name": "",
          "type": "address"
        }
      ],
      "name": "users",
      "outputs": [
        {
          "internalType": "address",
          "name": "userAddress",
          "type": "address"
        },
        {
          "internalType": "string",
          "name": "name",
          "type": "string"
        },
        {
          "internalType": "string",
          "name": "bio",
          "type": "string"
        },
        {
          "internalType": "string",
          "name": "twitterLink",
          "type": "string"
        },
        {
          "internalType": "string",
          "name": "websiteLink",
          "type": "string"
        },
        {
          "internalType": "string",
          "name": "profilePicture",
          "type": "string"
        },
        {
          "internalType": "string",
          "name": "username",
          "type": "string"
        },
        {
          "internalType": "string",
          "name": "occupation",
          "type": "string"
        },
        {
          "internalType": "uint256",
          "name": "points",
          "type": "uint256"
        },
        {
          "internalType": "uint256",
          "name": "reputation",
          "type": "uint256"
        },
        {
          "internalType": "uint256",
          "name": "lastActivity",
          "type": "uint256"
        }
      ],
      "stateMutability": "view",
      "type": "function",
      "constant": true
    },
    {
      "inputs": [
        {
          "internalType": "string",
          "name": "name",
          "type": "string"
        },
        {
          "internalType": "string",
          "name": "bio",
          "type": "string"
        },
        {
          "internalType": "string",
          "name": "twitterLink",
          "type": "string"
        },
        {
          "internalType": "string",
          "name": "websiteLink",
          "type": "string"
        },
        {
          "internalType": "string",
          "name": "profilePicture",
          "type": "string"
        },
        {
          "internalType": "string",
          "name": "username",
          "type": "string"
        },
        {
          "internalType": "string",
          "name": "occupation",
          "type": "string"
        }
      ],
      "name": "registerUser",
      "outputs": [],
      "stateMutability": "nonpayable",
      "type": "function"
    },
    {
      "inputs": [
        {
          "internalType": "string",
          "name": "heading",
          "type": "string"
        },
        {
          "internalType": "string",
          "name": "subheading",
          "type": "string"
        },
        {
          "internalType": "string",
          "name": "banyanFileId",
          "type": "string"
        }
      ],
      "name": "postQuestion",
      "outputs": [],
      "stateMutability": "nonpayable",
      "type": "function"
    },
    {
      "inputs": [
        {
          "internalType": "uint256",
          "name": "questionId",
          "type": "uint256"
        },
        {
          "internalType": "string",
          "name": "banyanFileId",
          "type": "string"
        },
        {
          "internalType": "bool",
          "name": "isDraft",
          "type": "bool"
        }
      ],
      "name": "postAnswer",
      "outputs": [],
      "stateMutability": "nonpayable",
      "type": "function"
    },
    {
      "inputs": [
        {
          "internalType": "uint256",
          "name": "answerId",
          "type": "uint256"
        }
      ],
      "name": "likeAnswer",
      "outputs": [],
      "stateMutability": "nonpayable",
      "type": "function"
    },
    {
      "inputs": [
        {
          "internalType": "uint256",
          "name": "questionId",
          "type": "uint256"
        },
        {
          "internalType": "uint256",
          "name": "amount",
          "type": "uint256"
        }
      ],
      "name": "proposeBounty",
      "outputs": [],
      "stateMutability": "payable",
      "type": "function",
      "payable": true
    },
    {
      "inputs": [
        {
          "internalType": "uint256",
          "name": "questionId",
          "type": "uint256"
        },
        {
          "internalType": "uint256",
          "name": "answerId",
          "type": "uint256"
        }
      ],
      "name": "claimBounty",
      "outputs": [],
      "stateMutability": "nonpayable",
      "type": "function"
    },
    {
      "inputs": [
        {
          "internalType": "uint256",
          "name": "questionId",
          "type": "uint256"
        }
      ],
      "name": "updateQuestionViews",
      "outputs": [],
      "stateMutability": "nonpayable",
      "type": "function"
    },
    {
      "inputs": [
        {
          "internalType": "uint256",
          "name": "answerId",
          "type": "uint256"
        }
      ],
      "name": "updateAnswerViews",
      "outputs": [],
      "stateMutability": "nonpayable",
      "type": "function"
    }
  ],
  "bytecode": "0x608060405234801561001057600080fd5b50611cf3806100206000396000f3fe6080604052600436106100e85760003560e01c806331b1b9781161008a578063de03fe1d11610059578063de03fe1d14610280578063e3518483146102a0578063fa2f52c5146102c0578063faf99c87146102e0576100e8565b806331b1b978146101d65780634ae8af09146102095780639104861314610229578063a87430ba14610249576100e8565b80631468aa2c116100c65780631468aa2c1461014b57806317599cc5146101615780632c3664b8146101965780632e809333146101b6576100e8565b80630bed0502146100ed578063107bf0c41461011657806312ad99df1461012b575b600080fd5b3480156100f957600080fd5b5061010360015481565b6040519081526020015b60405180910390f35b6101296101243660046118d2565b610300565b005b34801561013757600080fd5b506101296101463660046116c6565b61048b565b34801561015757600080fd5b5061010360005481565b34801561016d57600080fd5b5061018161017c36600461185d565b610675565b60405161010d99989796959493929190611b6b565b3480156101a257600080fd5b506101296101b136600461185d565b610755565b3480156101c257600080fd5b506101036101d13660046118d2565b61080d565b3480156101e257600080fd5b506101f66101f136600461185d565b61083e565b60405161010d9796959493929190611b0c565b34801561021557600080fd5b5061012961022436600461174a565b610a11565b34801561023557600080fd5b5061012961024436600461185d565b610bd9565b34801561025557600080fd5b5061026961026436600461167c565b610c2e565b60405161010d9b9a9998979695949392919061193e565b34801561028c57600080fd5b5061012961029b3660046118d2565b611043565b3480156102ac57600080fd5b506101296102bb366004611875565b611306565b3480156102cc57600080fd5b506101296102db36600461185d565b6114d8565b3480156102ec57600080fd5b506101036102fb36600461169d565b611524565b336000818152600460205260409020546001600160a01b031661033e5760405162461bcd60e51b815260040161033590611adf565b60405180910390fd5b8260008111801561035157506000548111155b61036d5760405162461bcd60e51b815260040161033590611aa8565b8234146103bc5760405162461bcd60e51b815260206004820152601f60248201527f416d6f756e74206d69736d6174636820776974682073656e742076616c7565006044820152606401610335565b6000848152600260209081526040808320338452600801909152812080548592906103e8908490611bcd565b90915550506000848152600260205260408120600601805485929061040e908490611bcd565b909155505060008481526002602090815260408083206007018054600181018255908452919092200180546001600160a01b03191633908117909155905185907f70f218c57229cc72ace59f33ddc631c235af53202023259d4c649c85cd4213bc9061047d9087815260200190565b60405180910390a350505050565b336000818152600460205260409020546001600160a01b03166104c05760405162461bcd60e51b815260040161033590611adf565b6096845111156105125760405162461bcd60e51b815260206004820152601f60248201527f48656164696e67206578636565647320636861726163746572206c696d6974006044820152606401610335565b610190835111156105705760405162461bcd60e51b815260206004820152602260248201527f53756268656164696e67206578636565647320636861726163746572206c696d6044820152611a5d60f21b6064820152608401610335565b60008054908061057f83611c76565b90915550506000805480825260026020908152604090922090815585516105ae92600190920191870190611540565b5060008054815260026020818152604090922085516105d593919092019190860190611540565b5060008054815260026020908152604090912083516105fc92600390920191850190611540565b506000805481526002602052604080822042600490910181905582548352818320600501839055825483528183206006018390559154905190917f683f155177100dd7a35085ef8831410ab8e582a17ef2b4d87124af64f776a2c39161066791889188918891611a2e565b60405180910390a250505050565b6003602052600090815260409020805460018201546002830180549293919261069d90611c3b565b80601f01602080910402602001604051908101604052809291908181526020018280546106c990611c3b565b80156107165780601f106106eb57610100808354040283529160200191610716565b820191906000526020600020905b8154815290600101906020018083116106f957829003601f168201915b505050600384015460048501546005860154600687015460079097015495966001600160a01b0390931695919450925060ff8082169161010090041689565b336000818152600460205260409020546001600160a01b031661078a5760405162461bcd60e51b815260040161033590611adf565b8160008111801561079d57506001548111155b6107b95760405162461bcd60e51b815260040161033590611a79565b60008381526003602052604081206006018054916107d683611c76565b9091555050604051339084907f0e8b8139d887765e0c98b7c346f79d389511d563f502e45a1f1bb057a09a4b6190600090a3505050565b6006602052816000526040600020818154811061082957600080fd5b90600052602060002001600091509150505481565b6002602052600090815260409020805460018201805491929161086090611c3b565b80601f016020809104026020016040519081016040528092919081815260200182805461088c90611c3b565b80156108d95780601f106108ae576101008083540402835291602001916108d9565b820191906000526020600020905b8154815290600101906020018083116108bc57829003601f168201915b5050505050908060020180546108ee90611c3b565b80601f016020809104026020016040519081016040528092919081815260200182805461091a90611c3b565b80156109675780601f1061093c57610100808354040283529160200191610967565b820191906000526020600020905b81548152906001019060200180831161094a57829003601f168201915b50505050509080600301805461097c90611c3b565b80601f01602080910402602001604051908101604052809291908181526020018280546109a890611c3b565b80156109f55780601f106109ca576101008083540402835291602001916109f5565b820191906000526020600020905b8154815290600101906020018083116109d857829003601f168201915b5050505050908060040154908060050154908060060154905087565b336000908152600460205260409020546001600160a01b031615610a6d5760405162461bcd60e51b81526020600482015260136024820152725573657220616c72656164792065786973747360681b6044820152606401610335565b60408051610160810182523380825260208083018b81528385018b9052606084018a90526080840189905260a0840188905260c0840187905260e08401869052600061010085018190526101208501819052426101408601529283526004825293909120825181546001600160a01b0319166001600160a01b0390911617815592518051929392610b049260018501920190611540565b5060408201518051610b20916002840191602090910190611540565b5060608201518051610b3c916003840191602090910190611540565b5060808201518051610b58916004840191602090910190611540565b5060a08201518051610b74916005840191602090910190611540565b5060c08201518051610b90916006840191602090910190611540565b5060e08201518051610bac916007840191602090910190611540565b506101008201516008820155610120820151600982015561014090910151600a9091015550505050505050565b80600081118015610bec57506000548111155b610c085760405162461bcd60e51b815260040161033590611aa8565b6000828152600260205260408120600501805491610c2583611c76565b91905055505050565b600460205260009081526040902080546001820180546001600160a01b039092169291610c5a90611c3b565b80601f0160208091040260200160405190810160405280929190818152602001828054610c8690611c3b565b8015610cd35780601f10610ca857610100808354040283529160200191610cd3565b820191906000526020600020905b815481529060010190602001808311610cb657829003601f168201915b505050505090806002018054610ce890611c3b565b80601f0160208091040260200160405190810160405280929190818152602001828054610d1490611c3b565b8015610d615780601f10610d3657610100808354040283529160200191610d61565b820191906000526020600020905b815481529060010190602001808311610d4457829003601f168201915b505050505090806003018054610d7690611c3b565b80601f0160208091040260200160405190810160405280929190818152602001828054610da290611c3b565b8015610def5780601f10610dc457610100808354040283529160200191610def565b820191906000526020600020905b815481529060010190602001808311610dd257829003601f168201915b505050505090806004018054610e0490611c3b565b80601f0160208091040260200160405190810160405280929190818152602001828054610e3090611c3b565b8015610e7d5780601f10610e5257610100808354040283529160200191610e7d565b820191906000526020600020905b815481529060010190602001808311610e6057829003601f168201915b505050505090806005018054610e9290611c3b565b80601f0160208091040260200160405190810160405280929190818152602001828054610ebe90611c3b565b8015610f0b5780601f10610ee057610100808354040283529160200191610f0b565b820191906000526020600020905b815481529060010190602001808311610eee57829003601f168201915b505050505090806006018054610f2090611c3b565b80601f0160208091040260200160405190810160405280929190818152602001828054610f4c90611c3b565b8015610f995780601f10610f6e57610100808354040283529160200191610f99565b820191906000526020600020905b815481529060010190602001808311610f7c57829003601f168201915b505050505090806007018054610fae90611c3b565b80601f0160208091040260200160405190810160405280929190818152602001828054610fda90611c3b565b80156110275780601f10610ffc57610100808354040283529160200191611027565b820191906000526020600020905b81548152906001019060200180831161100a57829003601f168201915b50505050509080600801549080600901549080600a015490508b565b336000818152600460205260409020546001600160a01b03166110785760405162461bcd60e51b815260040161033590611adf565b8260008111801561108b57506000548111155b6110a75760405162461bcd60e51b815260040161033590611aa8565b826000811180156110ba57506001548111155b6110d65760405162461bcd60e51b815260040161033590611a79565b600084815260036020819052604090912001546001600160a01b0316331461114c5760405162461bcd60e51b8152602060048201526024808201527f4f6e6c792074686520617574686f722063616e20636c61696d2074686520626f604482015263756e747960e01b6064820152608401610335565b60008481526003602052604090206001015485146111bb5760405162461bcd60e51b815260206004820152602660248201527f416e7377657220646f6573206e6f742062656c6f6e6720746f2074686520717560448201526532b9ba34b7b760d11b6064820152608401610335565b600084815260036020526040902060070154610100900460ff1661122f5760405162461bcd60e51b815260206004820152602560248201527f4e6f20626f756e7479206173736f6369617465642077697468207468697320616044820152643739bbb2b960d91b6064820152608401610335565b60008581526002602052604081206006015490606461124f83600a611c05565b6112599190611be5565b905060006112678284611c24565b604051909150339082156108fc029083906000818181858888f19350505050158015611297573d6000803e3d6000fd5b5060008881526002602090815260408083206006018390558983526003825291829020600701805461ff00191690559051828152339189918b917f3270fe6a1ffb0660c72ed35bf03a3cf48c163074fd00f367acdbe7c3deeaee8f910160405180910390a45050505050505050565b336000818152600460205260409020546001600160a01b031661133b5760405162461bcd60e51b815260040161033590611adf565b8360008111801561134e57506000548111155b61136a5760405162461bcd60e51b815260040161033590611aa8565b6001805490600061137a83611c76565b9091555050600180546000818152600360209081526040808320938455928401899055925481522085516113b692600290920191870190611540565b50600180546000908152600360208181526040808420830180546001600160a01b031916339081179091558554855281852042600490910181905586548652828620600590810187905587548752838720600690810188905588548852848820600790810180548e151560ff199091161790558e8952600287528589208201548a548a529787528589200180549715156101000261ff001990981697909717909655828752845282862087548154808a018355918852858820909101558b86529383528185208654815480890183559187529390952090940191909155925492518893927fbec2280c06666f4fdbf563afbc7f86cef1784046b114317dfe05d8862aa587ef926114c9928a929190611a00565b60405180910390a35050505050565b806000811180156114eb57506001548111155b6115075760405162461bcd60e51b815260040161033590611a79565b6000828152600360205260408120600501805491610c2583611c76565b6005602052816000526040600020818154811061082957600080fd5b82805461154c90611c3b565b90600052602060002090601f01602090048101928261156e57600085556115b4565b82601f1061158757805160ff19168380011785556115b4565b828001600101855582156115b4579182015b828111156115b4578251825591602001919060010190611599565b506115c09291506115c4565b5090565b5b808211156115c057600081556001016115c5565b80356001600160a01b03811681146115f057600080fd5b919050565b600082601f830112611605578081fd5b813567ffffffffffffffff8082111561162057611620611ca7565b604051601f8301601f19908116603f0116810190828211818310171561164857611648611ca7565b81604052838152866020858801011115611660578485fd5b8360208701602083013792830160200193909352509392505050565b60006020828403121561168d578081fd5b611696826115d9565b9392505050565b600080604083850312156116af578081fd5b6116b8836115d9565b946020939093013593505050565b6000806000606084860312156116da578081fd5b833567ffffffffffffffff808211156116f1578283fd5b6116fd878388016115f5565b94506020860135915080821115611712578283fd5b61171e878388016115f5565b93506040860135915080821115611733578283fd5b50611740868287016115f5565b9150509250925092565b600080600080600080600060e0888a031215611764578283fd5b873567ffffffffffffffff8082111561177b578485fd5b6117878b838c016115f5565b985060208a013591508082111561179c578485fd5b6117a88b838c016115f5565b975060408a01359150808211156117bd578485fd5b6117c98b838c016115f5565b965060608a01359150808211156117de578485fd5b6117ea8b838c016115f5565b955060808a01359150808211156117ff578485fd5b61180b8b838c016115f5565b945060a08a0135915080821115611820578384fd5b61182c8b838c016115f5565b935060c08a0135915080821115611841578283fd5b5061184e8a828b016115f5565b91505092959891949750929550565b60006020828403121561186e578081fd5b5035919050565b600080600060608486031215611889578283fd5b83359250602084013567ffffffffffffffff8111156118a6578283fd5b6118b2868287016115f5565b925050604084013580151581146118c7578182fd5b809150509250925092565b600080604083850312156118e4578182fd5b50508035926020909101359150565b60008151808452815b81811015611918576020818501810151868301820152016118fc565b818111156119295782602083870101525b50601f01601f19169290920160200192915050565b6001600160a01b038c16815260006101608060208401526119618184018e6118f3565b90508281036040840152611975818d6118f3565b90508281036060840152611989818c6118f3565b9050828103608084015261199d818b6118f3565b905082810360a08401526119b1818a6118f3565b905082810360c08401526119c581896118f3565b905082810360e08401526119d981886118f3565b61010084019690965250506101208101929092526101409091015298975050505050505050565b600060608252611a1360608301866118f3565b6001600160a01b039490941660208301525060400152919050565b600060808252611a4160808301876118f3565b8281036020840152611a5381876118f3565b90508281036040840152611a6781866118f3565b91505082606083015295945050505050565b602080825260159082015274105b9cddd95c88191bd95cc81b9bdd08195e1a5cdd605a1b604082015260600190565b60208082526017908201527f5175657374696f6e20646f6573206e6f74206578697374000000000000000000604082015260600190565b602080825260139082015272155cd95c88191bd95cc81b9bdd08195e1a5cdd606a1b604082015260600190565b600088825260e06020830152611b2560e08301896118f3565b8281036040840152611b3781896118f3565b90508281036060840152611b4b81886118f3565b6080840196909652505060a081019290925260c090910152949350505050565b60006101208b83528a6020840152806040840152611b8b8184018b6118f3565b6001600160a01b039990991660608401525050608081019590955260a085019390935260c0840191909152151560e08301521515610100909101529392505050565b60008219821115611be057611be0611c91565b500190565b600082611c0057634e487b7160e01b81526012600452602481fd5b500490565b6000816000190483118215151615611c1f57611c1f611c91565b500290565b600082821015611c3657611c36611c91565b500390565b600181811c90821680611c4f57607f821691505b60208210811415611c7057634e487b7160e01b600052602260045260246000fd5b50919050565b6000600019821415611c8a57611c8a611c91565b5060010190565b634e487b7160e01b600052601160045260246000fd5b634e487b7160e01b600052604160045260246000fdfea26469706673582212208a1d519723b32619c7a8fcd195b9061c0e33cce5895465d9b8416aef18fc4af664736f6c63430008030033",
  "immutableReferences": {},
  "source": "// SPDX-License-Identifier: MIT\n\n/* This smart contract provides the basic functionality for storing and retrieving \nquestion and answer metadata on the Base blockchain. The actual content\nassociated with the questions and answers are stored on Banyan, and this contract just stores\nthe Banyan file IDs as references.\n\nAlso implements bounty system, reputation/points distribution, defines user profiles, tags, categories, \nand achievement badges.\n*/\npragma solidity ^0.8.3;\n\ncontract QuestionAnswer {\n    struct Question {\n        uint256 id;\n        string heading;\n        string subheading;\n        string banyanFileId;\n        uint256 timestamp;\n        uint256 views;\n        uint256 bountyAmount;\n        address[] bountyProposers;\n        mapping(address => uint256) bounties;\n    }\n\n    struct Answer {\n        uint256 id;\n        uint256 questionId;\n        string banyanFileId;\n        address author;\n        uint256 timestamp;\n        uint256 views;\n        uint256 likes;\n        bool isDraft;\n        bool hasBounty;\n    }\n\n    struct User {\n        address userAddress;\n        string name;\n        string bio;\n        string twitterLink;\n        string websiteLink;\n        string profilePicture;\n        string username;\n        string occupation;\n        uint256 points;\n        uint256 reputation;\n        uint256 lastActivity;\n    }\n\n    uint256 public questionCount;\n    uint256 public answerCount;\n    mapping(uint256 => Question) public questions;\n    mapping(uint256 => Answer) public answers;\n    mapping(address => User) public users;\n    mapping(address => uint256[]) public userAnswers;\n    mapping(uint256 => uint256[]) public questionAnswers;\n\n    // Events\n    event QuestionPosted(uint256 indexed questionId, string heading, string subheading, string banyanFileId, uint256 timestamp);\n    event AnswerPosted(uint256 indexed answerId, uint256 indexed questionId, string banyanFileId, address author, uint256 timestamp);\n    event AnswerLiked(uint256 indexed answerId, address indexed liker);\n    event BountyProposed(uint256 indexed questionId, address indexed proposer, uint256 amount);\n    event BountyClaimed(uint256 indexed questionId, uint256 indexed answerId, address indexed claimer, uint256 amount);\n\n    // Modifier to check if user exists\n    modifier userExists(address user) {\n        require(users[user].userAddress != address(0), \"User does not exist\");\n        _;\n    }\n\n    // Modifier to check if question exists\n    modifier questionExists(uint256 questionId) {\n        require(questionId > 0 && questionId <= questionCount, \"Question does not exist\");\n        _;\n    }\n\n    // Modifier to check if answer exists\n    modifier answerExists(uint256 answerId) {\n        require(answerId > 0 && answerId <= answerCount, \"Answer does not exist\");\n        _;\n    }\n\n    // Function to register a new user\n    function registerUser(\n        string memory name,\n        string memory bio,\n        string memory twitterLink,\n        string memory websiteLink,\n        string memory profilePicture,\n        string memory username,\n        string memory occupation\n    ) public {\n        require(users[msg.sender].userAddress == address(0), \"User already exists\");\n        users[msg.sender] = User(msg.sender, name, bio, twitterLink, websiteLink, profilePicture, username, occupation, 0, 0, block.timestamp);\n    }\n\n    // Function to post a new question\n    function postQuestion(\n        string memory heading,\n        string memory subheading,\n        string memory banyanFileId\n    ) public userExists(msg.sender) {\n        require(bytes(heading).length <= 150, \"Heading exceeds character limit\");\n        require(bytes(subheading).length <= 400, \"Subheading exceeds character limit\");\n\n        questionCount++;\n        questions[questionCount].id = questionCount;\n        questions[questionCount].heading = heading;\n        questions[questionCount].subheading = subheading;\n        questions[questionCount].banyanFileId = banyanFileId;\n        questions[questionCount].timestamp = block.timestamp;\n        questions[questionCount].views = 0;\n        questions[questionCount].bountyAmount = 0;\n\n        emit QuestionPosted(questionCount, heading, subheading, banyanFileId, block.timestamp);\n    }\n\n    // Function to post a new answer\n    function postAnswer(\n        uint256 questionId,\n        string memory banyanFileId,\n        bool isDraft\n    ) public userExists(msg.sender) questionExists(questionId) {\n        answerCount++;\n        answers[answerCount].id = answerCount;\n        answers[answerCount].questionId = questionId;\n        answers[answerCount].banyanFileId = banyanFileId;\n        answers[answerCount].author = msg.sender;\n        answers[answerCount].timestamp = block.timestamp;\n        answers[answerCount].views = 0;\n        answers[answerCount].likes = 0;\n        answers[answerCount].isDraft = isDraft;\n        answers[answerCount].hasBounty = questions[questionId].bountyAmount > 0;\n\n        userAnswers[msg.sender].push(answerCount);\n        questionAnswers[questionId].push(answerCount);\n\n        emit AnswerPosted(answerCount, questionId, banyanFileId, msg.sender, block.timestamp);\n    }\n\n    // Function to like an answer\n    function likeAnswer(uint256 answerId) public userExists(msg.sender) answerExists(answerId) {\n        answers[answerId].likes++;\n        emit AnswerLiked(answerId, msg.sender);\n    }\n\n    // Function to propose a bounty for a question\n    function proposeBounty(uint256 questionId, uint256 amount) public payable userExists(msg.sender) questionExists(questionId) {\n        require(msg.value == amount, \"Amount mismatch with sent value\");\n        questions[questionId].bounties[msg.sender] += amount;\n        questions[questionId].bountyAmount += amount;\n        questions[questionId].bountyProposers.push(msg.sender);\n        emit BountyProposed(questionId, msg.sender, amount);\n    }\n\n    // Function to claim a bounty for an answered question\n    function claimBounty(uint256 questionId, uint256 answerId) public userExists(msg.sender) questionExists(questionId) answerExists(answerId) {\n        require(answers[answerId].author == msg.sender, \"Only the author can claim the bounty\");\n        require(answers[answerId].questionId == questionId, \"Answer does not belong to the question\");\n        require(answers[answerId].hasBounty, \"No bounty associated with this answer\");\n\n        uint256 totalBounty = questions[questionId].bountyAmount;\n        uint256 appFee = (totalBounty * 10) / 100;\n        uint256 authorAmount = totalBounty - appFee;\n\n        // Transfer bounty to the author\n        payable(msg.sender).transfer(authorAmount);\n        questions[questionId].bountyAmount = 0;\n        answers[answerId].hasBounty = false;\n\n        emit BountyClaimed(questionId, answerId, msg.sender, authorAmount);\n    }\n\n    // Function to update user points\n    function updateUserPoints(address user, uint256 points) internal {\n        users[user].points += points;\n    }\n\n    // Function to update question views\n    function updateQuestionViews(uint256 questionId) public questionExists(questionId) {\n        questions[questionId].views++;\n    }\n\n    // Function to update answer views\n    function updateAnswerViews(uint256 answerId) public answerExists(answerId) {\n        answers[answerId].views++;\n    }\n\n    // Additional helper functions for fetching data can be added here\n}",
  "sourcePath": "/Users/sarahdeng/Sparkl/truffle/contracts/QuestionAnswer.sol",
  "compiler": {
    "name": "solc",
    "version": "0.8.3+commit.8d00100c.Emscripten.clang"
  },
  "schemaVersion": "3.4.16",
  "updatedAt": "2024-06-11T06:08:55.714Z",
  "networkType": "ethereum",
  "devdoc": {
    "kind": "dev",
    "methods": {},
    "version": 1
  },
  "userdoc": {
    "kind": "user",
    "methods": {},
    "version": 1
  }
}